:104000000028002081B300007DB300007DB30000D4
:1040100000000000000000000000000000000000A0
:104020000000000000000000000000007DB3000060
:1040300000000000000000007DB300007DB3000020
:104040007DB300007DB300007DB30000E19200006D
:10405000599100007DB300007DB300007DB30000E6
:104060007DB3000009970000199700002997000010
:104070003997000049970000599700004DB30000A0
:104080005DB300006DB300007DB300007DB30000A0
:104090007DB3000000000000000000007DB30000C0
:1040A0007DB300007DB300007DB300007DB3000050
:1040B0000000000010B5064C2378002B07D1054BFB
:1040C000002B02D0044800E000BF0123237010BD84
:1040D000DC010020000000001C000100084B10B5AE
:1040E000002B03D00749084800E000BF07480368D9
:1040F000002B00D110BD064B002BFBD09847F9E7F1
:1041000000000000E00100201C0001001C00010074
:1041100000000000F0B5C64600B5032307009F432A
:104120001368DB430C00032902D9444203200440F6
:10413000002C16D0091B3E1D3D68E0004042203097
:10414000C5406B40E00019D00124274D03E05B0817
:104150000138002804D01C42F9D05B086B40F7E717
:10416000370003200C0084431ED0081B84468908B6
:1041700088463E000D0001201B4C0BE03700F0E7A5
:104180005B080139002904D01842F9D05B0863406C
:10419000F7E70436013D03D331684B402021F3E7B4
:1041A000414689007F186146002917D03C68C80045
:1041B0004042203001256D42C54028002040434048
:1041C000C9000BD00120084C03E05B08013900292D
:1041D00004D01842F9D05B086340F7E7DB43136073
:1041E000002004BC9046F0BD2083B8ED10B51E4AF7
:1041F000D36904210B43D3611C4B2022FF321A8365
:104200001A7D0523D20701D4180010BD03781B02C4
:10421000C022920013404178C901FF220A40134393
:10422000817849001E220A401343C27892048021FB
:10423000C9020A40134302791204C02189020A40CC
:1042400013430A4A536093685B035B0F08490824D1
:104250009C400C8093684B8043780B71138BDB057B
:10426000DB0F1B01D0E7C0460004004000400041C6
:10427000F801002030B50400224A108853884343D7
:104280008B4206D28022920118201F4BCB189342FA
:104290000ED81E4B5D688022D2022A435A6020222B
:1042A000FF321A831B7DDB0703D4184B5D600520AA
:1042B00030BD452C22D8A300154AD3589F46134B36
:1042C0001B8BDB0503D5114B5D601020F0E78908DF
:1042D00049000E4BD96103E0890849000B4BD961B5
:1042E000A52000020443094B1C80190001220B7D0C
:1042F0001342FCD0054B5D600020D9E7034B5D60A5
:104300001720D5E7F801002000C07FFF00400041E2
:10431000A4E30000F8B5254B1D885B886B43182487
:10432000834201D22000F8BD6B1E1842FAD1013C35
:104330009542F7D31E4B1B7D123CDB07F2D51D4C7B
:104340001B4B1C801D0001242B7D2342FCD020240C
:10435000FF34174B1C83002A22D0012305009D4304
:104360000023571E09E0CE187678360234432C809D
:1043700002339BB202359A4204D9CC5CBB42F2DBD9
:10438000A4B2F4E7094B1B790024002BCAD13F2AC1
:10439000C8D8002201000420074B98470400C1E759
:1043A000024B1B790024002BF3D0BBE7F80100205F
:1043B0000040004144A5FFFF75420000134B1A88DE
:1043C0005B8853431821834201D208007047920052
:1043D000013A1042F9D10E4B1B7D1339DB07F4D59E
:1043E0000B4B2022FF321A8380084000D861094A13
:1043F0001A80190001220B7D1342FCD0044B198B4B
:104400001C200140481E81418900DEE7F8010020A0
:104410000040004102A5FFFF10B52948294B9847ED
:1044200000283DD1284B1B78012B11D0002B06D141
:10443000012200212248254B9847002834D12048EA
:10444000234B984700283AD02248234B9847FEE751
:104450000122802149021A481C4B9847041E00D0B3
:1044600010240122802189021548184B9847002802
:1044700000D010240122C02189021148134B984713
:10448000002815D101228021C9020D480F4B984701
:10449000002801D1102CD2D110480F4B9847FEE7CD
:1044A0000F480D4B9847FEE70C480B4B9847FEE72B
:1044B00001228021C9020248044B9847ECE710BD55
:1044C000D80400209153000010040020B95B0000C4
:1044D000155D0000F8E4000045CF0000BCE40000DA
:1044E000D8E4000010B54848484B9847002803D04E
:1044F0004748484B9847FEE74348474B98470028B2
:1045000000D06BE0454B1B78012B02D0002B51D023
:1045100010BD0022802149023B48414B9847041EB0
:1045200000D0102402228021490237483D4B984791
:10453000002800D010240022802189023248384B04
:104540009847002800D010240222802189022E489A
:10455000344B9847002800D010240022C021890243
:1045600029482F4B9847002800D010240222C02150
:10457000890225482B4B9847002800D010240022A0
:104580008021C9022048264B984700282AD10222C0
:104590008021C9021C48234B9847002801D1102CC8
:1045A00003D121481B4B9847FEE7802252021F4B44
:1045B0001A60ADE7002200211348194B98470028E4
:1045C00017D10022802149010F48164B9847002837
:1045D00015D180225201154B1A6099E714480D4BF2
:1045E0009847FEE702228021C90207480D4B9847F1
:1045F000D7E700228021490103480A4B98470A481F
:10460000044B9847FEE7C046D8040020B55D000083
:1046100028E6000045CF0000915300001004002060
:10462000B95B0000CD590000BCE40000040200208A
:10463000D8E40000F0B5DE4657464646C0B582B025
:10464000071E3BD0A023DB0298463A4B1B689A46D4
:10465000002301933848394B9847002834D15346FA
:104660001C0A46460025002C2CDD354B9B4680233A
:104670005B00344A31003048D847002828D1002D4B
:104680002BD001AA802149002E482F4B9847013595
:104690000136FF36AC42EAD1FF2553461D402402C5
:1046A0004444ABB2274A21002348254EB047002896
:1046B0001CD021002548264B9847FEE780235B024B
:1046C0009846C2E70024E7E72248234B9847FEE7D5
:1046D00031001E481E4B9847FEE70023019301AAB4
:1046E000802149001748184B9847D0E701AA2900B4
:1046F0001448154B98471048184B9847002803D08A
:104700001748154B9847FEE701991648104B9847F4
:10471000002F0CD1144B5868019B181A4342584182
:10472000C0B202B01CBC90469A46A346F0BD0F4BE7
:104730005868F1E70C040020D8040020B55D0000A3
:10474000B95400000802002015410000D0E6000026
:1047500029CE000028E6000045CF0000155D0000CE
:10476000F8E40000F4E60000CC040020040500207A
:1047700010B504002048214B9847002810D1002C88
:104780001FD108231E4A802149011B481D4CA04708
:10479000002809D0802149011B481C4B9847FEE79F
:1047A0001B481C4B9847FEE715494B684A88098807
:1047B0001948164CA0471048184B9847002817D1A5
:1047C00010BD0823164A802189010B480D4CA047D3
:1047D000002805D0802189010B480C4B9847FEE743
:1047E0000F494B684A8809880B48084CA047E2E704
:1047F0000C48084B9847FEE7D8040020B55D000040
:10480000CC040020B954000074E6000029CE00005A
:1048100028E6000045CF000098E60000155D000086
:1048200004050020F8E4000010B51848184B98471C
:10483000002803D01748184B9847FEE70223174A71
:1048400000211248164CA047002812D1134B1B78A8
:10485000002B13D11349114B5B78002B10D1114A57
:104860001148124B98470948114B9847002809D125
:1048700010BD00210F480D4B9847FEE70E49EAE7AF
:104880000D4AEDE70D48044B9847FEE7D804002099
:10489000B55D000028E6000045CF0000E0040020E0
:1048A000B954000044E600004CE6000029CE0000A8
:1048B000155D000074E600003CE60000F8E400002E
:1048C00070B504003348344B9847002803D0334870
:1048D000334B9847FEE7002200212E48314B984782
:1048E000002803D030482E4B9847FEE702232F4A7A
:1048F000002128482E4DA847002804D000212D482B
:104900002D4B9847FEE7012C15D0002C0FD0022C20
:1049100015D0032C17D0002200211E48274B9847A2
:10492000002814D000212648234B9847FEE7012297
:104930001E4B1A70EFE700221C4B1A70EBE70122A6
:104940001A4B5A70E7E70022184B5A70E3E702232C
:10495000164A00210F481B4CA047002804D0002114
:104960001948154B9847FEE70122002109480D4BD5
:104970009847002803D00C48094B9847FEE70548A4
:10498000124B9847002803D01148054B9847FEE783
:1049900070BDC046D8040020B55D000028E60000C8
:1049A00045CF0000B95B000010E70000E0040020E4
:1049B000B954000074E6000029CE0000CD59000073
:1049C00030E70000CD5500005CE70000155D0000F9
:1049D000F8E40000F0B5DE464F464646C0B582B06A
:1049E000071E019101D0002908D16F486F4B9847ED
:1049F00002B01CBC90469946A346F0BD08206C4B03
:104A0000984700280ED06B4B1C786B486B4B98472F
:104A1000002800D0AEE0019B9C466444002C6AD084
:104A2000002555E080267600320000216448654C60
:104A3000A047320000216448A04700245D4B1C7051
:104A4000624B1C80624B00221A70624B9847624B8B
:104A50001C600820614B9847D5E7564B1E785A4B8F
:104A6000981980235B0098469B1B9B4679191A0076
:104A70005B4B98475D44584A136843449B1B136043
:104A800000234C4A1370013CFF3C514B1978090438
:104A90004E4B1B881B02C918524B1B68C918434652
:104AA000494A4548504EB047002855D1474A1388D7
:104AB00001339BB213801B024C4A934206DD444AE9
:104AC0001378013313700022404B1A80002C12D04F
:104AD000FF2CC2D8374B99461E783B48801979196C
:104AE00022003F4B984736194B461E703A4B1A68C6
:104AF000944664441C60384B1A683D4B1B689A42CC
:104B00004CD32C4B1B78002B10D09BB2304A117821
:104B100009042E4A128812028918324A126889182A
:104B2000294A2548304CA047002827D1304B1B6824
:104B3000294A126801992F482F4CA0472F4B1B7808
:104B4000012B29D02E492F482B4B98471020234B5F
:104B500098472D4B98474BE71D4B197809041B4B81
:104B60001B881B02C9181F4B1B68C9182748224BFA
:104B70009847FEE726480D4B9847FEE7144B1978F7
:104B80000904124B1B881B02C918164B1B68C91855
:104B90001E48194B9847FEE71E49D4E701991E4865
:104BA000154CA04724E7C04628E5000045CF00008B
:104BB00079500000FE010020D8040020915300002D
:104BC00008020020C7CC00000803002000020020DB
:104BD00002020020E544000014040020C54E00003D
:104BE00091CC000004020020CD550000FFFF000022
:104BF0000C0400206CE5000029CE00001004002009
:104C00001CE50000B0E500001944000048E5000084
:104C1000D8E4000010E50000E4E5000070B58AB0BB
:104C200001AA002414715471D46014612B4B0193B8
:104C300080235B0293602A4B536101235B429361A3
:104C4000284BD361284B1362284E29493000294B49
:104C500098473000284B9847284D04232B71033385
:104C60006B712E60063B6A465370947013706946F0
:104C70000720234B98476A79D1090023002904D1E2
:104C80005309DB011F498C4663441F211140012257
:104C90008A409A6180256D002A0000211A481B4C29
:104CA000A0472A0000211A48A047082200211948DD
:104CB000A047082200211848A047022200211748D7
:104CC000A0470023164A1370164A1380164B002281
:104CD0001A700120154B98470AB070BD001BB70031
:104CE000020010000200120002001300E404002081
:104CF000000C0042A19D00004D9F0000D804002040
:104D0000BD9200000044004108020020C7CC000012
:104D100008030020CC04002004050020E00400204B
:104D2000FE0100200002002002020020C54E00000B
:104D300010B5014B984710BD1944000070B50D4BDC
:104D400001221A705A70FC25AD010B4C2800A047B7
:104D50000528FBD0074EFC25AD01084C022231008E
:104D60002800A0470528F9D0024B00221A70013212
:104D70005A7070BDD4040020BD43000015430000EC
:104D800070B582B005000C000B0AFF210B400A0031
:104D90002240200E0190200C01400091290004487F
:104DA000044EB04721002800034B984702B070BD65
:104DB00044EA000029CE000015B7000010B5014BF1
:104DC000984710BD41C3000010B50C4B1B78012B58
:104DD0000AD008290BD00A480A4B9847082200211C
:104DE00009480A4B984710BD094B9847FBE7082232
:104DF00001000548074B9847F5E7C046100400201E
:104E0000E0EB000045CF00004C060020C7CC0000BE
:104E1000D549000091CC000010B582B0194B1B7829
:104E2000DA0715D59A0718D55A071AD41B071CD4C8
:104E30001548164B9847164B1B78012B19D0002BA1
:104E400009D10093012213491348144CA04702E0F2
:104E500013480E4B984702B010BD12480B4B9847B1
:104E6000F9E71148094B9847F5E71048074B984771
:104E7000F1E70023009301220D490748074CA047A2
:104E8000E9E7C0460804002024EB000045CF0000FD
:104E90001004002094EB00006405002045BC0000D5
:104EA00074EA0000A0EA0000CCEA0000F8EA000082
:104EB00050EB0000024A1378834313707047C046DA
:104EC00008040020024B1A78104318707047C0463F
:104ED0000804002010B582B02C2803D032282DD031
:104EE00002B010BD0B78012B18D0002BF8D11A4856
:104EF0001A4B984702201A4B98471A4B1B781B07EE
:104F000012D4184B1B785B0714D4FF230093164B65
:104F100002221D211548164CA047E1E715480F4B0A
:104F20009847154B9847DBE7144B984708200C4BE4
:104F30009847E6E704200A4B9847E6E78B784A78DB
:104F40000878C978009101000D480E4CA047022056
:104F50000D4B9847C4E7C04620EC000045CF000049
:104F6000B54E00000804002040EC000050EC0000AA
:104F70002572000000EC000041720000314D00007D
:104F800070EC000029CE0000C54E000010B51400E2
:104F9000042906D88900284B5B589F462748284B90
:104FA000984710BD2748264B98470420264B984722
:104FB000F7E7118852682548254B98472388C82B66
:104FC0000FD16168234B19600022234B1A60234BD9
:104FD0009942E6D8A068224B984710201A4B984770
:104FE000DFE72020184B9847DBE7116850681C4B1F
:104FF0009847237A002BD4D01020134B9847D0E742
:1050000011681848124B984723680B33C9D1164BC7
:105010001B781B0706D4144B1B785B0708D4134B73
:105020009847BEE7124B98470820124B9847F2E783
:105030000420104B9847F2E780E7000000E90000E9
:1050400045CF000038E90000C54E000064E90000CB
:1050500029CE00000C04002014040020A605000046
:10506000C94D0000A0E9000008040020194E00000E
:10507000314D0000B54E00000300034A107818407F
:10508000431E9841C0B270470804002010B58EB08E
:1050900000221D4B1A7001A81C4B98471C4C01A9FB
:1050A00020001C4B984720001B4B984701A81B4B26
:1050B00098471B4B0593029401A91A481A4B98472D
:1050C000011E15DB19491748194B9847194B98478A
:1050D0001822002108A8184B9847184B089308A8D5
:1050E000174B9847011E07D01648174B9847FEE705
:1050F0001648154B9847FEE7154B98471549164833
:10510000164B98470EB010BD0804002089C500005A
:105110000C05002095C5000041C60000A1B50000A7
:10512000A605000064050020C9B500008D4F0000F1
:105130007DB60000195F0000C7CC0000D54E00000E
:10514000556E000018EA000029CE0000D0E90000EA
:10515000818A0000814D0000BD4D0000C58A00001D
:1051600070B582B00E4C21000E480F4B9847FF23BC
:1051700000930E4B02221D2120000D4CA0470D4B29
:105180001B789B070AD40C4E0C4D0D4C0020B047E9
:105190002800A047074B1B789B07F7D502B070BDCE
:1051A00050EC0000B0E8000029CE000040EC000008
:1051B0002572000008040020896F00000C05002003
:1051C000C9C6000070B51C4B187001282AD01B49B5
:1051D0001B481C4B98471C4B98471C4B1B789A0745
:1051E0000ED530221A420BD1194E1A4C1A4D0020FE
:1051F000B0472000A847154B1B7830221A42F6D042
:105200000820164CA0472020A0470420A0471020CB
:10521000A047094B1B78012B06D008491048094BC1
:10522000984770BD0F49D3E7082200210E480F4B65
:1052300098470C49F2E7C046100400201CE5000026
:10524000D4E8000029CE0000194E00000804002018
:10525000896F00000C050020C9C60000B54E000093
:10526000E8E8000010E500004C060020C7CC000074
:1052700070B500202E4B984700202E4B98472E4BA0
:1052800098472E4C6288218863682D482D4DA84789
:1052900022882D4B1B889A4203D82C4B1B78002B5D
:1052A00039D12B482B4DA84701202B4B98472B4831
:1052B000A847082121482A4B98470820294CA04795
:1052C0002020A0470420A0471020A0472648A84738
:1052D0000120174B98470020164B98470020234B7E
:1052E0009847002803D122481A4B984770BD21489F
:1052F000184CA0470020184B98471F48A0471F4B49
:1053000098471F48A047BFF34F8F1E4A1E4BDA60D5
:10531000BFF34F8FFEE71D480E4B98470820114CF6
:10532000A0472020A0470420A0471020A047DDE789
:10533000C551000071470000294800004C060020BC
:1053400094E7000029CE0000CC040020E0040020F7
:10535000C8E7000045CF0000C1480000E4E70000B6
:10536000D5490000B54E0000FCE7000035460000BE
:1053700054E8000014E8000028E800003D4D00005B
:1053800040E800000400FA0500ED00E080E80000BD
:1053900030B589B00400002307930568374B984760
:1053A0002B79002B66D101332B71354B98479F2207
:1053B00001AB1A706179CA090023002A04D14B0994
:1053C000DB01304A944663441F220A400120010059
:1053D0009140596103A901AB0393888000238B811D
:1053E00000222068284B984720688379052BFCD041
:1053F00003AA07AB0393032393800021224B984712
:1054000022689379052BFCD06279D1090023002909
:1054100004D15309DB011B498C4663441F21114011
:1054200001228A409A610023226813712379092B93
:1054300015D89B00154AD3589F46154B12E0154BC3
:1054400010E0154B0EE0154B0CE0154B0AE0154B28
:1054500008E0154B06E0154B04E0154B02E0002375
:1054600000E0144B079A9A4202D0142009B030BDD4
:105470000020FBE7024B98470520F7E74590000026
:105480008590000000440041819F000098EC0000DE
:105490001F4300001F4401001F4502001F4501007B
:1054A0001F4602001F4603001F8600001F47010021
:1054B0001F4800001F650000F0B589B004000E0011
:1054C00001921F005A180379092B15D89B003A49FD
:1054D000CB589F468023DB0212E080231B030FE0A2
:1054E00080235B030CE080239B0309E08023DB0324
:1054F00006E080231B0403E0002301E080235B021D
:1055000017209A4201D909B0F0BD25682B4B984766
:105510002B79002B4BD101332B71294B98470B234F
:1055200002AA1370D670330A9370360C56706279E3
:10553000D1090023002904D15309DB0121498C46FC
:1055400063441F21114001228A405A6104A902AB21
:10555000049305238B8000238B81002220681A4B43
:10556000984720688379052BFCD0002F13D16279EE
:10557000D1090023002904D15309DB0111498C46CC
:1055800063441F21114001228A409A61236800224E
:105590001A710020B7E704AA019B049397800021A9
:1055A000094B984722689379052BFCD0DFE7044B21
:1055B00098470520A7E7C046C0EC000045900000D2
:1055C0008590000000440041819F0000F0B5DE4658
:1055D00057464E464546E0B58BB004000F00019299
:1055E0001E005A180379092B15D89B008A49CB58FD
:1055F0009F468023DB0212E080231B030FE0802301
:105600005B030CE080239B0309E08023DB0306E0BF
:1056100080231B0403E0002301E080235B021720AA
:105620009A4206D90BB03CBC90469946A246AB467E
:10563000F0BD2568794B98472B79002B00D0E6E028
:1056400001332B71764B9847062304AA13706179B6
:10565000CA090023002A04D14B09DB01714A944690
:1056600063441F220A40012001009140596106A9AC
:1056700004AB0693888000238B81002220686A4B4C
:10568000984722689379052BFCD06279D1090023D1
:10569000002904D15309DB0162498C4663441F2170
:1056A000114001228A409A61FF223A4080235B0028
:1056B0009B1A1A1C9BB2B34200D9321C93B29A4671
:1056C000022304AA1370D7703B0A93703B0C5370EB
:1056D0006279D1090023002904D15309DB01514922
:1056E0008C4663441F21114001228A405A6106A959
:1056F00004AB069304238B8000238B810022206857
:10570000494B984720688379052BFCD05346002BE2
:1057100063D16179CA090023002A04D14B09DB0156
:10572000404A944663441F220A40012108009040E9
:10573000986106AB04AA0692998000229A81627948
:10574000D1090023002904D15309DB0135498C46D6
:1057500063441F21114001228A405A61052304AA93
:105760001370002206A920682F4B9847226893796E
:10577000052BFCD02C4D06AA00212068A8472268E2
:105780009379052BFCD004AB1B78DA07F3D461794D
:10579000C8090022002804D14A09D20121488446C0
:1057A00062441F20084001218140916110209B0626
:1057B00000D5FFE05346F61AB3B202930020002B47
:1057C00000D1F7E0062398461F239B46012606AD2D
:1057D00000236A46D381B94630E006A9019B0693AF
:1057E00053468B800022104B984722689379052BF3
:1057F000FCD08EE7019B2B605346AB800022290032
:10580000094B984722689379052BFCD083E0044B21
:105810009847052006E7C046ECEC000045900000E4
:105820008590000000440041819F0000029B524689
:105830009B1A9BB20293002B00D1BFE004AB4246FF
:105840001A706379D9090022002904D15A09D201BA
:105850005B498C46624459460B4031009940516186
:1058600004AB2B60AE806B46DB89AB810022290044
:105870002068544B984722689379052BFCD06379B4
:10588000D9090022002904D15A09D2014C498C4679
:10589000624459460B40310099409161D144019BCB
:1058A0005344019302990B1C80225200914201D96A
:1058B000454B1B889BB29A46022304AA137013001F
:1058C0004A46DA704B461B0A04AA93704B461B0CDF
:1058D00053706379D9090022002904D15A09D201F1
:1058E00037498C46624459460B403100994051611A
:1058F00004AB2B600423AB800023AB810022290082
:105900002068304B984720688379052BFCD053469C
:10591000002B00D06EE76379D9090022002904D159
:105920005A09D20126498C46624459460B4031003F
:105930009940916104AB2B60AE800023AB81637909
:10594000D9090022002904D15A09D2011C498C46E8
:10595000624459460B40310099405161052304AA25
:105960001370002229002068164B9847226893790B
:10597000052BFCD0134F2A0000212068B84722686D
:105980009379052BFCD004AB1B781E42F3D16279CE
:10599000D0090021002804D15109C90108488446D2
:1059A0006144584602403000904088619B0600D414
:1059B0003CE71020236800221A7133E60020F9E743
:1059C00000440041819F0000E8EC0000F0B587B082
:1059D00004000E0015000379092B00D9DCE09B00C0
:1059E000704AD3589F468023DB0210E080231B03BC
:1059F0000DE080235B030AE080239B0307E0802304
:105A0000DB0304E080231B0401E080235B021720FA
:105A1000B34201D807B0F0BD2768634B98473B7984
:105A2000002B00D0BAE001333B71604B984706234E
:105A30006A4613706179CA090023002A04D14B0910
:105A4000DB015B4A944663441F220A4001200100A7
:105A50009140596102A96B460293888000238B8193
:105A600000222068534B984722689379052BFCD07D
:105A70006279D1090023002904D15309DB014C4983
:105A80008C4663441F21114001228A409A61012DF6
:105A900006D0002D7ED0D823022D02D0002300E0B6
:105AA00052236A461370D670330A9370360C5670C0
:105AB0006279D1090023002904D15309DB013C4953
:105AC0008C4663441F21114001228A405A6102A979
:105AD0006B46029304238B8000238B810022206875
:105AE000344B984722689379052BFCD06179CA0919
:105AF0000023002A04D14B09DB012D4A944663445C
:105B00001F220A40012108009040986102AB6A46BA
:105B10000292998000229A816279D109002300299A
:105B200004D15309DB0122498C4663441F211140F3
:105B300001228A405A6105236A461370002202A995
:105B400020681C4B984722689379052BFCD0194D8F
:105B500002AA00212068A84722689379052BFCD06F
:105B60006B461878C307F3D46279D1090023002962
:105B700004D15309DB010E498C4663441F211140B7
:105B800001228A409A618006C00F0001236800222A
:105B90001A713FE7202384E717203BE7034B984720
:105BA000052037E714ED00004590000085900000C7
:105BB00000440041819F0000F0B587B004000E0052
:105BC00015000379092B00D993E09B004C4AD35868
:105BD0009F468023DB0210E080231B030DE080231F
:105BE0005B030AE080239B0307E08023DB0304E0E0
:105BF00080231B0401E080235B021720B34201D8FD
:105C000007B0F0BD27683F4B98473B79002B72D116
:105C100001333B713C4B984706236A461370617908
:105C2000CA090023002A04D14B09DB01374A9446F4
:105C300063441F220A40012001009140596102A9DA
:105C40006B460293888000238B8100222068304BB2
:105C5000984722689379052BFCD06279D1090023FB
:105C6000002904D15309DB0128498C4663441F21D4
:105C7000114001228A409A613623002D00D103335E
:105C80006A461370D670330A9370360C5670627978
:105C9000D1090023002904D15309DB011B498C469B
:105CA00063441F21114001228A405A6102A96B46B8
:105CB000029304238B8000238B8100222068144BE5
:105CC000984722689379052BFCD06279D10900238B
:105CD000002904D15309DB010C498C4663441F2180
:105CE000114001228A409A61236800221A71002023
:105CF00086E7172084E7044B9847052080E7C046D5
:105D00003CED0000459000008590000000440041FB
:105D1000819F000030B587B004000568214B98478B
:105D20002B79002B38D101332B711F4B9847B923A6
:105D30006A4613706179CA090023002A04D14B090D
:105D4000DB011A4A944663441F220A4001200100E5
:105D50009140596102A96B460293888000238B8190
:105D600000222068124B984722689379052BFCD0BB
:105D70006279D1090023002904D15309DB010B49C1
:105D80008C4663441F21114001228A409A61236896
:105D900000221A71002002E0034B9847052007B04B
:105DA00030BDC04645900000859000000044004191
:105DB000819F000030B587B004000568214B9847EB
:105DC0002B79002B38D101332B711F4B9847AB2314
:105DD0006A4613706179CA090023002A04D14B096D
:105DE000DB011A4A944663441F220A400120010045
:105DF0009140596102A96B460293888000238B81F0
:105E000000222068124B984722689379052BFCD01A
:105E10006279D1090023002904D15309DB010B4920
:105E20008C4663441F21114001228A409A612368F5
:105E300000221A71002002E0034B9847052007B0AA
:105E400030BDC046459000008590000000440041F0
:105E5000819F000070B50020084B98470500084C52
:105E6000FA218900A047074B186007492800A0477E
:105E7000064B18600522064B1A6070BDADAA0000E3
:105E8000D5C800000000002040420F0004000020A0
:105E900010E000E030B5084B1C68084A002580215E
:105EA0004902013807D3002CFBD054609560136879
:105EB0000B42FCD0F5E730BD0000002010E000E010
:105EC00010B5034B1B68002B00D0984710BDC0468F
:105ED0001804002070B5441E002804D0024D012093
:105EE000A847013CFBD270BD955E0000F8B5084C98
:105EF00080277F0567618026360566616420054D31
:105F0000A847A7616420A847A6616420A847F8BDF8
:105F100000440041D55E000070B582B00023164AEF
:105F2000136001AC01256570A370257021001B2052
:105F3000124EB04721001C20B04721002820B04756
:105F40000F4B802252055A61802212055A610D4B77
:105F50001B681D4203D00B4B1B689B0701D40A4BE7
:105F600098470A4B98470122094B1A70BFF35F8F7D
:105F700062B6002002B070BD18040020BD9200007F
:105F80000044004110E000E0555E0000ED5E0000BE
:105F90000A00002010B584B00E4B186001AC200040
:105FA0000D4B98472923019300236360013323722B
:105FB0000133E37221000920084B98470022092190
:105FC0000748084B984700210920074B984704B021
:105FD00010BDC04618040020319200004592000018
:105FE000C15E0000ED9000001991000010B500287E
:105FF00004D100210920044B984710BD002109203D
:10600000024B9847F9E7C04639910000199100000A
:1060100030B591B0304C0E23237000236370A37011
:1060200001A901224A708B700A700E202B4B9847F1
:106030002278D1090023002904D15309DB01284922
:106040008C4663441F211140012210008840986152
:1060500002AC2270002303930493C02189030591AD
:1060600023746374A274E27423752332A354183A20
:10607000002108A81B4B98471B4BA3621B4BE362F4
:1060800001235B4223631A4B63631A4BA361220013
:1060900019491A481A4B984700281AD1174D2C68ED
:1060A0002000184B98471F2318401E3B8340164A78
:1060B00013602A68D369002BFCD1236802221343A2
:1060C0002360124B98470120114B9847002011B0D4
:1060D00030BD06204042FAE754060020BD92000081
:1060E00000440041C7CC000002000C0002000D007B
:1060F00002000F00001BB7000010004258060020ED
:1061000069970000D996000000E100E0ED5E000014
:10611000D55E0000F0B5DE4657464E464546E0B532
:1061200083B0032800D075E00E684D680C8900220A
:106130006B46DA71002D27D0002C65D0002E00D1DF
:1061400077E00023984600239B4601223B493C48C8
:106150003C4B98473A4B9A460127042299465946A8
:106160004B4259418B46307853461B68197E394261
:10617000FCD0197E3942FCD09862197E1142FCD0C5
:10618000494689798C4611E0002E3AD0002C3ED049
:106190000023984601339B466B46DD1DD5E76046DC
:1061A00001280DD0986AC0B200290DD0197E114285
:1061B000FCD0588B00211042F1D05A831E31EEE7FB
:1061C000986AC005C00DEFE72870013CA4B25D4499
:1061D000434659424B41F618002CC4D1184B19685C
:1061E00002220B7E1342FCD0002214491448154BA6
:1061F0009847002003B03CBC90469946A246AB4667
:10620000F0BD0F204042F5E70F204042F2E70F209B
:106210004042EFE70E22FF320B490C480C4B9847E7
:106220000C480D4B98470D200C4B984701204042DD
:10623000E0E7012398466B46DE1D84E75406002004
:10624000580600207D99000064ED000074ED000008
:1062500029CE000088ED000045CF00005DCE000093
:1062600030B583B001AB00221A709A705A70134D8A
:106270002C682000124B98471F2318401E3B834078
:10628000802210498B502A68D369002BFCD18F33B0
:1062900023752376236802229343236001A90C20EF
:1062A000094CA04701A90F20A04701A90D20A04734
:1062B00001A90E20A047002003B030BD58060020E1
:1062C000D996000000E100E0BD920000002A06D04F
:1062D00082180B780370013001319042F9D1704778
:1062E000002A04D08218017001309042FBD170471F
:1062F00003000278002A07D00020013080B2013369
:106300001A78002AF9D170470020FCE7024AD378B6
:106310000133DBB2D3707047940600207047000051
:1063200000B583B000220A4B9A700120094B9847B0
:1063300001A90948094B9847002801D003B000BDC6
:106340000221019B194301910348054B9847F5E74A
:1063500094060020ED5F0000701000002977000017
:106360003577000010B50C4B9B780020002B0DD129
:10637000094B5B78002B03D1074B1B78002B06D110
:10638000054A53780133DBB25370002010BD034B34
:1063900098470028F4D0F9E7940600201174000013
:1063A000054B5B78002B04D0034A5378013BDBB2EA
:1063B000537000207047C0469406002010B50B4B68
:1063C0005B78002B04D0094A5378013BDBB2537051
:1063D000064B5B780020002B03D1044B1B78002B6D
:1063E00000D110BD024B9847FBE7C0469406002041
:1063F000A9730000F0B5DE46574680B589B08346E4
:106400008A460192009310AB80CB1E8812AB1D8888
:106410007F220A4007AB5A70187008225A80002F5A
:106420003DD05A889219AA1892B25A80694B98475F
:10643000041E00D0C1E00023059302AAD380049378
:10644000049B5A461A430492049A53461B02134370
:10645000049307AB5B88049A1B04134304930499C9
:106460005D485E4B9847041E57D100230493049B5C
:1064700002221343049304995948584B9847041E29
:106480004BD10022059202ABDA8006331B889BB207
:10649000544A934249D8544C544B9A4617E007ABA0
:1064A0005A8800998C46624492B25A80BEE7012015
:1064B000D047049B9B0728D502ABDA88013292B201
:1064C000DA8006331B889BB2464A93422DD804A932
:1064D0004348A047002828D102AB06331B889BB253
:1064E000F422FF329342E4D902AB06331B889BB2FD
:1064F00001329342DBD83E483E4B98473E483F4BE3
:1065000098470D203E4B9847D1E705A93D48364BAB
:106510009847041E09D0002305933B4B9847200061
:1065200009B00CBC92469B46F0BD059B002B3FD0AA
:10653000059B069307A94B889BB24B8006980822BF
:10654000324B9847041EE8D1069B08330693019B03
:10655000002B0BD00698009A19002C4B9847041E6C
:10656000DBD1069B009A944663440693002F0ED01D
:10657000069B009AAD1AED18069506983200390070
:10658000224B9847041EC8D1069BF3180693059B1F
:106590009B000493049B02221343049304991C4818
:1065A0000E4B9847041EB8D11A4B98470400B6E723
:1065B000184B984703246442B1E7CB225200164996
:1065C00016480C4B984716480C4B98470D200C4B1F
:1065D0009847A4E7656300008C1000003577000041
:1065E00078100000E703000029770000D55E000066
:1065F000A4F0000029CE0000B0F0000045CF00005C
:106600005DCE000000041500A1630000A977000022
:106610006C100000BD630000BCED000074ED0000D4
:10662000C0F00000F0B5CE46474680B587B0CF4BEE
:106630009846994680E0CD4B059A5A609D6004AF1C
:10664000042239000598CA4B984704007B889BB206
:106650007B80002833D104AB5B889BB29D4204D081
:1066600004AB5B88EB1A042B39DC04AB1B78012BE1
:106670004ED004AB1B78022B78D004AB1B78042BD4
:1066800000D190E004AB1B78062B00D1A8E004AB4E
:106690001B78072B00D1BFE004AB1B78052B00D182
:1066A000D6E0B44AB449B548B54B9847B548B64B5F
:1066B00098470D20B54B98470624644216E1D22234
:1066C000FF32AD49AD48AE4B9847B148AE4B984705
:1066D0000D20AE4B98470120AE4B984706E1ED22C6
:1066E0005200A549A548A64CA04704A94A8892B2E1
:1066F0000B78DBB2497800912900A748A0470D200C
:10670000A24B98470120A34B984706246442EDE032
:10671000964BDB68002B1CD0944BDB6804AA5078A6
:10672000C0B25188059A0832083989B298478F4B10
:106730009B78002B00D09CE04346DB78002B00D1F7
:1067400058E14B46DB78013BDBB24A46D370934EAF
:10675000D7E0F322520088498848894B98479048EF
:10676000894B98470D20894B9847E0E77F4B1B6981
:10677000002B0BD07D4B1B6904AA5078C0B2518806
:10678000059A0832083989B29847D0E7F7225200B3
:1067900079497A487A4B984782487B4B98470D2035
:1067A0007A4B9847C3E7714B5B69002B0BD06F4B5B
:1067B0005B6904AA5078C0B25188059A083208393A
:1067C00089B29847B3E7FB2252006B496B486C4B88
:1067D000984775486C4B98470D206C4B9847A6E737
:1067E000624B1B6A002B0BD0604B1B6A04AA5078CB
:1067F000C0B25188059A0832083989B2984796E79D
:106800006A4A5D495D485E4B984769485E4B9847C8
:106810000D205E4B98478AE7544B9B69002B0BD0A9
:10682000524B9B6904AA5078C0B25188059A08322D
:10683000083989B298477AE75E4A4F494F48504B2A
:1068400098475D48504B98470D20504B98476EE74E
:10685000464B5B6A002B00D169E7444B5B6A04AA94
:106860005078C0B25188059A0832083989B29847E1
:106870005DE7524A40494148414CA04704AB197872
:10688000C9B25A78D2B24E48A0470D203F4B984724
:106890004C4B9847041E29D14EE787229200364977
:1068A0003648374B98474848374B98470D20374B69
:1068B00098470224644219E0892292002E492F4809
:1068C0002F4CA04703994148A0470D202F4B9847D4
:1068D0000C2464420AE03E4A27492848284B98473E
:1068E0003C48294B98470D20284B98473A4A3B494A
:1068F0002248234FB84721003948B8470D20234B81
:10690000984703A93748B047041EE4D1039BDB072F
:10691000D2D500201F4B9847012303999943039137
:106920003048314B9847041EE0D101220F4B9A703A
:10693000039B9D042D0DB0D00023059305A92B4882
:10694000164B9847041E00D175E6C822FF320A494B
:106950000A480B4B984726480B4B98470D200B4B8A
:10696000984701200B4B9847C0E7C046940600208B
:10697000417700000F020000C8ED000074ED000038
:1069800029CE000024EF000045CF00005DCE0000BE
:1069900020EE0000ED5F000038EE000029770000D7
:1069A00078EE000098EE0000BCEE0000FF01000051
:1069B000DCEE00000602000000EF000015020000FF
:1069C0003CEF00002163000068EF00007CEF000056
:1069D0002D02000098EF00004A020000D0ED0000F8
:1069E000BCEF00007010000035770000841000003C
:1069F000FCED0000002007B00CBC90469946F0BDAD
:106A000070B514001D00002803D0002901D0002A11
:106A100012D1002D02D0274B984770BD264A274936
:106A20002748284B98472848284B98470D20284B43
:106A300098470C204042F0E7264B9B689A421AD8B0
:106A4000244B5B68984226D38618224A5368926882
:106A50009B189E421FD822001F4B98470028DCD16C
:106A60001C4A536892689B189E4201D0002DD4D0D6
:106A7000104B9847D1E7194A10491148114DA847C2
:106A8000144B9A6821001648A8470D20104B9847D0
:106A90000C204042C1E7134A08490948094B98476E
:106AA00011480A4B98470D20094B98470C2040424B
:106AB000B3E7C046216300006B020000E0ED000078
:106AC00074ED000029CE0000ECEF000045CF00007F
:106AD0005DCE0000940600204177000073020000A4
:106AE0000CF000007902000054F0000070B50400C2
:106AF00007281FD88300164AD3589F46154B1961A3
:106B0000002070BD134BD9600020FAE7114B59618A
:106B10000020F6E70F4BD9610020F2E70D4B196218
:106B20000020EEE70B4B99610020EAE7094B596220
:106B30000020E6E7084A094909480A4DA84721000C
:106B40000948A8470D20094B98470C204042D8E738
:106B50009CED000094060020B1020000ECED000066
:106B600074ED000029CE000098F000005DCE00001A
:106B700010B5282200210648064B98470648074BC7
:106B8000984707490320074B9847002010BDC0468F
:106B900094060020E16200000D630000955F000094
:106BA0001D630000ED6A000030B59FB004001500C1
:106BB0002C282FD01B283DD006284BD00E2827D0BC
:106BC000322857D02F2865D0342800D177E01128FB
:106BD00000D196E0132800D1ACE0042800D1BBE03E
:106BE000652800D1CAE0092800D1D9E02A2800D1BF
:106BF000E8E0202800D1F7E09222520089498A4833
:106C00008A4DA84721008A48A8470D20894B9847FC
:106C10001FB030BD0023042203A92800864CA047E2
:106C20000028F5D1854B1B68002BF1D003A92C302F
:106C30009847EDE70023082203A928007E4CA047CF
:106C40000028E5D17D4B1B68002BE1D003A91B3048
:106C50009847DDE70123302203A92800764CA0479E
:106C60000028D5D1754B1B68002BD1D003A9063065
:106C70009847CDE70023142203A928006E4CA047B3
:106C80000028C5D16D4B1B68002BC1D003A9323041
:106C90009847BDE76422002103A8694B9847002369
:106CA000642203A92800644CA0470028B0D1634B9C
:106CB0001B68002BACD003A92F309847A8E700230E
:106CC000042203A928005C4CA0470028A0D15D48FD
:106CD000564DA847039C230AFF200340220C024084
:106CE000210E204000905848A8470D20514B98474E
:106CF000524B1B68002B00D18AE7002134209847B3
:106D000086E70022514B1A700023043203A92800A1
:106D1000494CA047002800D07AE703AB1A784C4BC7
:106D20001A70464B1B68002B00D171E703A9113084
:106D300098476DE700232C2203A928003E4CA0476A
:106D4000002800D064E73D4B1B68002B00D15FE7B3
:106D500003A9133098475BE7002304221CA92800ED
:106D6000354CA047002800D052E7344B1B68002B5D
:106D700000D14DE71CA90430984749E700230422BD
:106D80001CA928002C4CA047002800D040E72B4B22
:106D90001B68002B00D13BE71CA96530984737E7FB
:106DA0000123642203A92800234CA047002800D017
:106DB0002EE7224B1B68002B00D129E703A90930DD
:106DC000984725E70123042203A928001A4CA0476D
:106DD000002800D01CE7194B1B68002B00D117E7D7
:106DE00003A92A30984713E70023082203A92800A3
:106DF000114CA047002800D00AE703AB9A8828006E
:106E00000830012303990C4CA047002800D0FFE66E
:106E10000A4B1B68002B00D1FAE603A920309847E3
:106E2000F6E6C046DCF0000074ED000029CE00005C
:106E30002CF100005DCE0000016A00001C0400205F
:106E4000E1620000A4F000000CF100002104002029
:106E500020040020F0B58FB001220F236B441A707C
:106E6000002861D00268324B1A600022314B1A7040
:106E70000F206844304B9847041E02D020000FB00A
:106E8000F0BD00202D4B9847041E49D12C4901200C
:106E90002C4B984704AE30002B4B984704002B48EE
:106EA0002B4DA847B37972793179308C00902948FD
:106EB000A8470D20284FB8472448A84726226A44EF
:106EC0001A2169442548A8470D20B8471F48A847FC
:106ED000737A327AF1792248A8470D20B8471B48C7
:106EE000A8470223052213211E48A8470D20B847B2
:106EF0001648A8471C4A1D491D48A8470D20B847F9
:106F000023000D33BAD1E822FF321A491A48104B38
:106F100098471A481A4B98470D200F4B9847ADE7F2
:106F20000020184B9847A9E70C246442A6E7C04606
:106F30001C04002021040020F5780000716B000083
:106F4000A96B0000ED6A000011780000A4F00000B9
:106F500029CE0000E8F100005DCE000010F2000034
:106F60002CF2000050F2000068F2000074F2000001
:106F700080F20000E8F0000074ED000098F20000DC
:106F800045CF0000C979000010B5014B984710BDEE
:106F900025660000F0B5CE46474680B5A3B0059003
:106FA0000C0015001F002AAB1B8899462BAB1B78E1
:106FB0009846012A03D0002F40D0022A4CD0631EED
:106FC0001F2B00D978E04B46013B9BB20D2B03D918
:106FD0004B46FF2B00D07DE007AE220005995A20DA
:106FE00002AB9C466044784B9847341946340023E2
:106FF000237044334A46F25243465A1E9341672255
:10700000B3544123F554032D00D172E0022D00D179
:10701000ABE0042D00D1C3E0012D00D0C6E0002379
:107020000293019300936C3307AA28210120674C37
:10703000A04723B00CBC90469946F0BD644A654910
:107040006548664B98476648664B98470D20664BE7
:1070500098470C204042ECE73800644B98474028A2
:10706000ADD13B781A00303A362A17D80A3A062AA8
:1070700014D9473B192B11D97A1C380040301378AA
:1070800019003039362909D80A39062906D9473B6B
:10709000192B03D901328242F1D190E7544A4D496C
:1070A0004D484E4B984753484E4B98470D204E4BFA
:1070B00098470C204042BCE74F4A46494648474B58
:1070C00098474E48474B98470D20474B98470C2010
:1070D0004042AEE78D2292003E493F483F4B9847E1
:1070E0004748404B98470D203F4B98470C20404263
:1070F0009FE73B78013BDBB207AA1370032B17D83D
:107100007A78511E07AB59701023110099430B294F
:107110001DD03C4A2F493048304CA04707AB597826
:107120003948A0470D20304B98470C20404280E75B
:10713000364A28492848294CA04707AB19783448D3
:10714000A0470D20284B98470C20404271E7B91CFE
:10715000162002AB9C4660441B4B98477B7807AADD
:107160009446634400229A7059E738001F4B9847B1
:10717000431E9BB23F2B05D8421C390007A8124B77
:1071800098474CE7234A13491348144B9847224821
:10719000144B98470D20144B98470C20404248E769
:1071A0003E22390007A8084B984738E71B4A09498F
:1071B00009480A4B98471A480A4B98470D200A4B32
:1071C00098470C20404234E7CD620000F563000090
:1071D00015020000F8F0000074ED000029CE000058
:1071E00040F1000045CF00005DCE0000F1620000DC
:1071F0002102000054F100002B02000060F10000A9
:1072000074F10000520200009CF100004B020000EB
:1072100080F1000061020000B8F10000710200007E
:10722000D4F1000030B583B006AC24880025019568
:107230000094024CA04703B030BDC046956F0000DB
:1072400000207047F0B583B080256D000543A5246C
:107250006401084F084E29002000B847002301931D
:1072600001A92000B0470028F5D1019B9D42F2D131
:1072700003B0F0BD357700002977000000B583B07A
:107280000023019301A91148114B9847002801D010
:1072900003B000BD80214900019B194301910B48B7
:1072A0000C4B98470028F3D101A9D0204001084B8E
:1072B00098470028ECD180214902019B1943019194
:1072C000D0204001034B9847E2E7C0460814000075
:1072D000297700003577000010B582B0284B1C6874
:1072E000002C04D0264B1C68200002B010BD1900F1
:1072F00080204001234B9847002803D00022204BD8
:107300001A60F1E701A920481E4B9847002803D0D6
:1073100000221B4B1A60E7E7194B1B681B4A93427C
:107320000ED01B4A934212D01A4A93421CD01449E1
:10733000194A0B681A40A023DB0213430B60D1E704
:10734000019B012BF3D0154A0D4B1A60EFE7019B0F
:10735000032BECD0042B03D0114A094B1A60E6E74B
:10736000104A074B1A60E2E70549EC208003054B01
:1073700098470028DBD00022014B1A60B4E7C046D2
:107380002404002029770000F4130000A00210005C
:10739000B0021000F0001000FFFFF0FFA10210008B
:1073A000B2021000B102100030B583B0164C0125B6
:1073B00001A91020A04700281CD1019B2B42F7D126
:1073C00001A90130104B9847002813D101998B0770
:1073D00007D502239943019101300C4B98470028AF
:1073E00008D101A90B20084B9847002802D1019928
:1073F000CB0701D403B030BD0123994301910B3079
:10740000024B9847F6E7C046297700003577000021
:10741000F0B583B000230193009301A90B20284B02
:107420009847041E30D10199CB0706D40123194394
:107430000B20244B9847041E26D101A90120204B84
:107440009847041E20D101998B0720D505251C4F94
:107450001D4E69460F20B847041E20D1009B5B07D4
:107460002BD40220B047013D002DF2D1AF225200B3
:1074700016491748174B98471748184B98470D203F
:10748000174B984704246442200003B0F0BD022348
:10749000194301200B4B9847041ED7D0F4E7AA22CA
:1074A00052000A490A480B4DA847009A21000D488E
:1074B000A8470D200A4B9847E6E70B4B9847E3E7B0
:1074C0002977000035770000D55E0000B4F2000097
:1074D00074ED000029CE0000FCF2000045CF000052
:1074E0005DCE0000E4F2000011770000F8B507005F
:1074F0002D4D2E4C2E4E2800A047002802DB0120E7
:10750000B047F8E72B48294B9847C30709D4284EC2
:10751000294C264D0120B0472000A847274B984210
:10752000F8D1022F21D0032F29D0042F30D02449A5
:107530002448254B98470024244B98470005000D0C
:10754000234B98422AD82000224B98472248234CAC
:10755000A0471B492248A0470D20224B98472249AB
:107560001548194B98470020F8BD20492048164C73
:10757000A047802149031348A0470024DCE71B49AA
:107580001B48114CA04700210E48A0470024D3E718
:107590000B490C480C4B98478024CDE70220204330
:1075A0000C4B9847D2E7C046141000001D7700002E
:1075B000D55E0000BC0702000C000C009ED0AD1090
:1075C000521352138C10000035770000D97200005E
:1075D0009F03000045720000A4F0000029CE0000C7
:1075E00018F300005DCE0000612F52EF7DD51C3CEA
:1075F000AC07020070B582B0154B0193154B009398
:107600000238012811D9012464420020124E134D82
:10761000009B98420ED00220B0470198A847013C39
:10762000002CF5D10520404209E00D4B01930D4B94
:107630000093E8E7009A074B00209A4201D002B07D
:1076400070BD00210248084B98470020F7E7C0466C
:107650008C10000036265302D55E00001D77000016
:10766000AC070200C3C15DD73577000010B582B00A
:107670000023019301A9A0204001144B9847041E48
:1076800015D11349019B19400191A0204001114BD4
:107690009847041E16D0104A10491148114B9847BC
:1076A0001148124B98470D20114B98470AE0114A98
:1076B0000A490B480B4B98470B480C4B98470D2039
:1076C0000B4B9847200002B010BDC0462977000040
:1076D000FFFBFFFF357700000B020000C0F2000047
:1076E00074ED000029CE0000CCF2000045CF000070
:1076F0005DCE00000502000010B5014B984710BD9B
:107700001160000010B5014B984710BD6162000088
:1077100010B5014B984710BDC180000010B5014B5A
:10772000984710BDF980000010B5014B984710BD77
:107730000D81000010B5014B984710BD2581000058
:10774000F0B5D6464F464646C0B582B0804689461B
:107750001500134B1F88083FBBB201931E000400A5
:107760009A421AD90F4B9A46371A4346E11A4944AE
:10777000019A2000D047002809D1AD1B3919A4195E
:10778000B542F2D8AAB249442000064B984702B04D
:107790001CBC90469946A246F0BD0021F2E7C046C7
:1077A0000800002069820000F0B5D6464F464646E4
:1077B000C0B582B0804689461500134B1F88083F2C
:1077C000BBB201931E0004009A421AD90F4B9A468D
:1077D000371A4346E11A4944019A2000D04700284D
:1077E00009D1AD1B3919A419B542F2D8AAB249443E
:1077F0002000064B984702B01CBC90469946A24612
:10780000F0BD0021F2E7C04608000020C58300005B
:1078100070B584B00400002303930822002101A85E
:107820002D4B9847002C44D02822002120002B4BC0
:10783000984703A92A482B4B984700283AD1039B25
:10784000002B39D0C02080021843082201A9264B02
:10785000984700282ED1029B1804000C03902ED0CC
:10786000C0239B021843282221001F4B9847002861
:1078700020D121790902A2790F231A400A436179A4
:107880000901FF2529400A43E1790902667A33405C
:107890000B43217A09010D402B43002A12D0002B03
:1078A00013D012498B4213D8114B9A4202D80D388B
:1078B00000E0002004B070BD0C204042FAE70C202C
:1078C0004042F7E70C204042F4E70C204042F1E749
:1078D0000D204042EEE7C046C7CC0000E162000048
:1078E00008000C00297700004177000052130000C7
:1078F0005113000070B5002837D005786B1E032B9C
:1079000000D901250020204B9847041E2FD11F4885
:107910001F4CA0471F4B984701001F48A0470D2050
:107920001E4B98471E4B984728001E4B9847041E35
:1079300017D128001C4B9847041E12D1023D012D7F
:1079400011D91A4B9847041E0DD05622FF32184900
:1079500018480F4B98471848184B98470D200F4B65
:107960009847174B9847200070BD0125CAE7282289
:10797000FF320F490F48064B984712480F4B984764
:107980000D20064B9847EEE7F9760000A4F00000C2
:1079900029CE0000D9720000E8F300005DCE00009F
:1079A0003D810000ED740000F57500007D7200005F
:1079B00030F3000074ED0000ACF3000045CF000090
:1079C00005770000CCF3000010B51C4B9847041E4F
:1079D0000BD100201A4B9847041E14D1194B98471D
:1079E000041E1DD1184B98470BE0B62252001749D0
:1079F0001748184B98471848184B98470D20184BB4
:107A00009847200010BD7422FF3210491048114BD6
:107A100098471448114B98470D20114B9847F0E7B1
:107A20007A22FF3209490A480A4B98470E480B4B05
:107A300098470D200A4B9847E3E7C0466D76000053
:107A40005D8F000005770000E98000003CF3000036
:107A500074ED000029CE00004CF3000045CF00007B
:107A60005DCE00006CF3000090F3000000B585B01F
:107A700001AB019000220292198119000320024BF0
:107A8000984705B000BDC0461561000070B584B0D0
:107A900008AC257801AC20703F30C4B20E2C00D960
:107AA00084E0A0004F4C2058874601AB0A0C5A7066
:107AB0000A0A9A70D97005214B4B1B78002B77D09E
:107AC0000139C9B283E00B0ADBB2002D07D101AA4C
:107AD000537001AB99700022DA700521ECE7802227
:107AE0005242134301AA5370F3E701AB00225A70CC
:107AF0009A70DA700521DFE701AB00225A709A70A4
:107B0000DA700521D8E701ABFF225A709A70DA705B
:107B10000521D1E701AA080C5070080A9070D170B5
:107B2000190A117153710721C6E701AA080C507098
:107B3000080A9070D170190C1171190A5171937162
:107B40000821B9E70B0ADBB2002D0CD101A8437064
:107B500001AB9970110ED970110C1971110A59717C
:107B60009A710821A8E780204042034301A843708E
:107B7000EEE701AB080C5870080A9870D970110E26
:107B80001971110C5971110A9971DA71092193E770
:107B90002822FF3215491648164B98471648174BAE
:107BA00098470D20164B9847002317E0002315E057
:107BB0004E1E01AA95197F23124C5B00107843409A
:107BC000E35C0132AA42F8D15B0001AA935589B265
:107BD00001A80D4B984701230028D9D1180004B003
:107BE00070BDC046F8F300002804002038F40000FF
:107BF00074ED000029CE0000C8F8000045CF000059
:107C00005DCE0000C4F400006D7A000000B585B0C0
:107C100001AB002201920290198119000320024B4E
:107C2000984705B000BDC04615610000F0B5C646D6
:107C300000B582B00700CF282BD003003B33DBB266
:107C4000012B26D90B246B46DE1D264B98460121BD
:107C50003000C047051E25D13378BB4230D0013CEF
:107C6000E4B2002CF3D10B346B46DE1D1D4F012115
:107C70003000B847002825D13378002B2FD0013CA5
:107C8000E4B2002CF3D10125280002B004BC9046D8
:107C9000F0BD01216B46D81D124B984700250028E6
:107CA000D0D0F1E7B12252000F491048104B98474D
:107CB0001048114B98470D20104B98470025E3E7DB
:107CC0000B24D1E7B822520007490848084B9847CF
:107CD0000848094B98470D20084B9847D4E70125E1
:107CE000D2E7C0460D7C000050F4000074ED0000A7
:107CF00029CE0000F4F8000045CF00005DCE000062
:107D0000F0B5DE4657464E464546E0B587B0019091
:107D10008946029200239A4680239B019B466A462D
:107D2000D3813B4B98462EE03A4A3B493B483C4B7B
:107D300098473C483C4B98470D203C4B98470025C2
:107D4000280007B03CBC90469946A246AB46F0BD21
:107D5000002C2EDD019B5344180039002C4B984712
:107D6000041E33D1029B002B03D1314B1B78002B17
:107D700039D05346FB181BB29A464B46DF1BBBB2A9
:107D80009946002B42D04F46D94501D96B46DF8931
:107D9000BFB20A2404ABDE1C01213000C047051E1F
:107DA000C2D133781B090F2BD2D0013C24B2631C03
:107DB000F2D1204A18491948194CA04704ABD97888
:107DC0001D48A0470D20194B9847B9E7C5229200DE
:107DD00011491248124B98471848134B98470D20E9
:107DE000124B9847ACE7022105A8094B9847002899
:107DF000BFD0134A08490948094B984711480A4B14
:107E000098470D20094B9847250099E7012597E7EA
:107E10000D7C0000FF0200005CF4000074ED000027
:107E200029CE000028F9000045CF00005DCE0000FB
:107E3000280400200B0300005CF900008CF900000E
:107E40001F030000BCF90000F0B5D6464F46464679
:107E5000C0B586B00390049130280FD8304B1F78FE
:107E6000FBB205930023302203998A425B41DBB2C7
:107E70009A460A252B4B9846D14633E02A4B1F7869
:107E8000EEE70598294B98470400012841D0E722E6
:107E9000920027492748284EB04703992748B04702
:107EA0000D20274B98470120264EB0470023009312
:107EB00000220021CF201B4FB847CF201B4B9847F3
:107EC000214A1B491B481C4FB847049B039A2900B1
:107ED0001E48B8470D201A4B98470120B047013D76
:107EE000002D16D04B4600930423049A039F3900BB
:107EF0000598C04704000128C3D0154A0C490D4815
:107F00000D4EB04739001348B0470D200C4B984731
:107F1000C9E7200006B01CBC90469946A246F0BDB9
:107F200034F400008D7A000035F400002D7C000050
:107F30007CF4000074ED000029CE0000B4FA0000CB
:107F40005DCE0000D55E0000AF030000ECFA00003B
:107F50009603000088FA0000F0B5DE4657464E460C
:107F60004546E0B587B002908B46FF280FD8414BBD
:107F70001F78FBB203930023FF2202998A425B41E0
:107F8000DBB29A460A253C4B9846D14631E03B4B42
:107F90001F78EEE703983A4B9847040001283FD03A
:107FA000384A394939483A4EB04702993948B047BA
:107FB0000D20394B98470120384EB04700230093DD
:107FC00000220021CF202C4FB847CF202C4B9847C0
:107FD000334A2D492D482E4FB847029A290031487F
:107FE000B8470D202C4B98470120B047013D002D8C
:107FF00037D04B46009304230022029F3900039898
:10800000C04704000128C5D0274A1F491F48204EF9
:10801000B04739002548B0470D201F4B9847CAE7A5
:108020004A46042105A8224B9847040001280BD09A
:10803000204A15491548164B98471F481F4B98472B
:108040000D20154B9847B6E705AA53781B02917887
:1080500009040B4311780B43D278120613435A4696
:108060001360200007B03CBC90469946A246AB4640
:10807000F0BDC04636F400008D7A000037F40000F1
:108080002D7C00001D0400009CF4000074ED000035
:1080900029CE00001CFA00005DCE0000D55E000075
:1080A0003C04000070FA000017040000F0F9000022
:1080B000017D00002404000050FA000045CF0000BC
:1080C00010B582B00023009300220021CF20044C81
:1080D000A047CF20034B9847002002B010BDC046F8
:1080E0008D7A00002D7C00000022024B1A700020C7
:1080F0007047C0462804002000B583B001A9024B98
:108100009847019803B000BD597F000010B5044B9B
:1081100098470023012801D1180010BD063BFBE75A
:10812000597F000010B5044B98470023012801D166
:10813000180010BD063BFBE7497E000010B582B079
:1081400000230093354A137069463548354B9847EC
:10815000002828D0314B1B78002B0DD17C3300999F
:1081600099432C3B194300912D482F4B9847041EEF
:1081700039D00122294B1A7001A980204001294BD6
:10818000984700283BD0264C2000284B9847702366
:1081900001009943502001432000254B98470024BB
:1081A000200002B010BD01221C4B1A70214A224946
:1081B0002248234B98472348234B98470D20234BB5
:1081C000984769461648174B9847041EC2D1204A63
:1081D00019491A481A4B98471E481B4B98470D20BF
:1081E0001A4B9847DCE71C4A13491448144B98472C
:1081F0001A48154B98470D20144B9847D0E7184A5A
:108200000D490E480E4B984716480F4B98470D20C6
:108210000E4B984706246442C2E7C046280400205B
:1082200024E80000597F0000497E0000F98000002A
:1082300025810000C7040000B8F4000074ED0000C0
:1082400029CE0000C4F5000045CF00005DCE00003F
:10825000CA04000014F60000D404000040F6000038
:10826000DE04000074F60000F0B5DE4657464E46C8
:108270004546E0B587B00290039116000A25002319
:108280009B4600243E4B9846A94637E001239B4677
:10829000013635E0C8203B4B9847012845D03A4A83
:1082A0003A493B483B4FB84702993B48B8470D20F5
:1082B0003A4B984701203A4FB847009423002200D8
:1082C0002100CF202E4DA847CF202E4B9847354A6E
:1082D0002E492F482F4B9A4698473300029A494619
:1082E0003148D0470D202D4B98470120B847012336
:1082F0005B429C46E1444B46002B38D0012EC5D052
:10830000009433002200029D2900C820C0470128A4
:10831000C0D0264A1D491E481E4FB8472900244890
:10832000B8470D201D4B9847C4E75B46002B16D07D
:1083300005AF2200310038001E4B98473B78039A66
:108340001370012811D01C4A10491148114B98474D
:108350001A481B4B98470D20104B9847AAE722005C
:1083600031000398134B9847EBE7002001E006200B
:10837000404207B03CBC90469946A246AB46F0BD91
:108380008D7A00002D7C000063040000ACF4000036
:1083900074ED000029CE0000C8F600005DCE00009C
:1083A000D55E00008404000028F700005D04000092
:1083B00098F60000017D00007304000000F7000043
:1083C00045CF0000F0B5DE46474680B589B0049041
:1083D0008B4603920A268027BF016B46DF82350059
:1083E0002DE0013303932DE0834A84498448854C72
:1083F000A04731008448A0470D20844B98470120B6
:10840000834CA0470023009300220021CF20814EFF
:10841000B047CF20804B9847804A78497848794EBA
:10842000B047039B049A29007D48B0470D20774B45
:1084300098470120A047013D002D00D1D5E0039BC6
:10844000012BCED000230093039B0022049E310019
:10845000C720704CA0470128C6D1C7206E4B984753
:1084600001280CD0F422920064496548654CA0476D
:1084700004996C48A0470D20644B9847BFE7002241
:1084800007AB1A80039C0026A8463500260021E091
:108490000023B7425B4102330B2004AA9446604498
:1084A000102252421343037001215F4B984700286A
:1084B0001DD15B46581921005B4B9847002830D1ED
:1084C0005A4B1B78002B39D065192DB2361BB6B22A
:1084D000002E53D0341CBE4201D96B46DC8AA4B2B4
:1084E000002DD5D10323BE42D6D9023BD4E7454661
:1084F000D42292004E494248424B98474D484E4B39
:1085000098470D20414B9847F82292003B493C4840
:108510003C4B98474948484B98470D203B4B984760
:108520006DE74546464A42493548364B98474548E7
:10853000414B98470D20354B9847E5E7022107A8A6
:10854000394B98470028BFD045463F4A38492C4808
:108550002C4B98473D48384B98470D202B4B98475C
:10856000D2E73C22FF323A492548264B9847394802
:10857000314B98470D20254B984727E045462B4B1C
:108580001C78631E9C410234A1B207A8324B984765
:108590000028E6D108AB1B19053B1B78002B06D140
:1085A00008AB9C466444063C2378C32B1BD0A12215
:1085B000520027491248134CA04707A98B784A78E4
:1085C00009782648A0470D20104B9847FA229200C0
:1085D0000A490B480B4B98471848174B98470D20F2
:1085E0000A4B98470BE7002001E00620404209B003
:1085F0000CBC90469B46F0BDCA0300008CF4000002
:1086000074ED000029CE000044F700005DCE0000AC
:10861000D55E00008D7A00002D7C0000F203000082
:1086200028F7000074F700006D7A0000280400208D
:108630006CF40000ACF7000045CF0000A0F800008B
:1086400059030000E4F700006303000018F800007D
:1086500040F4000050F800000D7C000070F80000AD
:10866000F0B5DE4657464E464546E0B585B001902A
:108670000E0002921D000EAB1C88002C64D003017A
:1086800035495B58002B5FD00101334B5B189B8849
:108690009BB2002B58D0304B5B189B7A012B53D1E7
:1086A000F4802D4B9B468B445B460A229046D8446F
:1086B0008A460095039315E0250001231CE0013351
:1086C000002200210020254CA0473DE02448254DF4
:1086D000A84721002448A8470D20244B984733E0A1
:1086E000002C31D05B469B88E31A1BB2002BE3DDE4
:1086F000039B9D88ADB20023174A514689582A0032
:108700000098164FB8470028E0D1134B5246D35873
:108710003360B580F3885B1BF380154B1B68002B1F
:1087200005D0134B1B683200029901989847641BCF
:10873000A4B2009B9C46AC446346009343461B781E
:10874000002BCDD1002CBAD105B03CBC9046994647
:10875000A246AB46F0BDC046C0060020016A00003C
:10876000A4F0000029CE000008FB00005DCE000050
:1087700070070020F0B5D6464F464646C0B59AB0C1
:108780000D001400412839D0542837D0422853D046
:1087900043286AD0442800D1AFE04B2800D1ACE098
:1087A0004A2800D1CFE0462800D1E5E0482800D192
:1087B0000EE14D2800D1DCE0452800D12CE147280E
:1087C00000D14DE107254C2800D126E152282DD1BA
:1087D0000123142209A92000A24CA047002825D17A
:1087E000A14B0A9A1A601B68002B1FD09E4B1C6875
:1087F00009AB1A7C0B990998A04717E000230422C3
:1088000009A92000974CA04700280FD109AB5A783E
:1088100005AB1A70954B1B68002B07D0934B1B6858
:1088200009AA0020105605AA012198471AB01CBCBD
:1088300090469946A246F0BD0023042209A92000D3
:10884000884CA0470028F1D109AB5A7805AB1A70C3
:10885000864B1B68002BE9D0844B1B6809AA0020BB
:10886000105605AA02219847E0E700230C2205A92B
:1088700020007C4CA0470028D8D105AB09229A568D
:10888000002A24DB180008215956794B0901591890
:10889000C97AC9B214011B19D9720121997241898F
:1088A000083989B2198173490B8801339BB20B8057
:1088B0000B889BB2002B03D10B8801339BB20B803A
:1088C0006C4B198889B21001694B1B18D98009AB10
:1088D0001A7002229A8005AA5188D980069A0B92B2
:1088E000624B1B68002BA1D0604B1B6805AA0820B7
:1088F000105609AA0421984798E70023042209A9E1
:108900002000584CA047002800D08FE709AB00207A
:10891000185605AA10705B785BB25370002B07D114
:1089200009AB5B88083B9BB20101514A5218138185
:108930004E4B1B68002B00D178E74C4B1B6805AAF7
:108940000521984772E70023442209A92000454CDD
:10895000A047002800D069E7474B1B68002B00D1D7
:1089600064E7454B1B68199A0392110009A89847C0
:108970005CE706239A4601E006239A46002310226C
:1089800005A92000374FB847002800D04EE705AAB8
:108990000C201056D38907013549C91900270F73D8
:1089A0000826975FB8465789B94609AF56887E8131
:1089B000069A0C92CA8892B293420CD0102D00D81D
:1089C00034E70123002200210020264CA0472DE798
:1089D00009239A46D2E74346002B01DDA8450FDB69
:1089E00009AB42469A8000230993204B1B68002B59
:1089F00000D11BE71D4B1B6809AA5146984715E794
:108A000023004B44424669468A818A890092524635
:108A100039001A4CA04709E707250023082209A9B5
:108A20002000104CA047002800D0FFE609AB002032
:108A300018569A88598805AB198001010C4B5B18B0
:108A4000DB889BB29A4200D0F0E6084B1B68002BF3
:108A500000D1EBE6054B1B6805AA29009847E5E61F
:108A60000825DAE7016A000074070020700700207B
:108A7000C00600202A04002078070020618600003C
:108A800010B50A4B1B78002B00D010BDB02200217E
:108A90000748084B984708490220084B984701228D
:108AA000024B1A700022064B1A80EEE729040020C0
:108AB000C0060020E162000075870000ED6A00003A
:108AC0002A040020024B1860024B19607047C04610
:108AD0007007002078070020F0B5D646474680B5DD
:108AE00089B00592022800D09CE001290AD0022911
:108AF00000D170E001256D42280009B00CBC904601
:108B00009A46F0BD494C2778FFB22678F6B2207815
:108B100001300631464B9847C9B221703201454BAE
:108B20009B189B7A0625002B18D0404E404B9A4646
:108B3000404B98463778FFB23478E4B23078013051
:108B40000721D047C9B23170230143449B7A002BDF
:108B500007D0013DEDB2002DECD1CBE7354BD41859
:108B600002E02401334BE4187DB2002DC4DB102257
:108B700000212000304B98470123A3722F4A13880D
:108B800001339BB2138013889BB2002B03D113884F
:108B900001339BB21380294E33889BB2E38028486F
:108BA000284FB847328892B229002748B8470D208D
:108BB000264B9847059BDB079ED507AA15702123F6
:108BC000E3720023029301930093043350210220A7
:108BD0001F4CA04790E71F4B1D78EDB21C78240175
:108BE0001D4AA4181978013103220A401A70A37A89
:108BF000002B14D003221749174F03200D78EDB234
:108C00000C782401E4190B78013303400B70A37A2C
:108C1000002B04D0013AD2B2002AEFD16AE707351F
:108C20006DB2A2E701256D4266E7C0462C04002024
:108C3000B5CB0000C0060020E16200002A0400203D
:108C4000A4F0000029CE000034FB00005DCE00003F
:108C5000F56300002D0400203007002070B588B0B7
:108C6000041E30DB002931D000011D4B1B189B7AFC
:108C7000012B2ED1002A2FD0194B1B18DB7A44264A
:108C8000DB0705D5164B1B18DA7A05AB5A72073687
:108C900005AD2C7208222800124B98472401104B76
:108CA0001C19E3886B8100230293019300930C331A
:108CB0002A00310002200C4CA047002801D00920D6
:108CC000404208B070BD06204042FAE7062040420C
:108CD000F7E706204042F4E706204042F1E7C046AD
:108CE000C0060020CD620000F563000030B589B0F9
:108CF000002836DB002937D0AF23DB009A4236D874
:108D000004011E4B1B199B7A012B33D104AB187045
:108D10005A802500194C6419E4889C815025062846
:108D200000DD0C3D0401154B1B19DC7A4523E407DB
:108D300005D50001114B18180589ADB24C238020D0
:108D40001843029501920091102304AA0100022009
:108D50000B4CA0470023002800D00E3B180009B0A0
:108D600030BD06235B42F9E706235B42F6E70623A4
:108D70005B42F3E706235B42F0E7C046C0060020F3
:108D8000F563000030B587B0002834DB002935D00A
:108D9000002A36D005011E4C6419A47A012C33D167
:108DA0001B4C29516419A280217B002200291DD16E
:108DB00001212173E27A4531D20700D50731002B1A
:108DC00017D1013B049304AA10710001104B18182D
:108DD000C388D380002302930193009308330220B9
:108DE0000C4CA0470022002800D00E3A100007B01B
:108DF00030BD0493E7E706225242F7E706225242CB
:108E0000F4E706225242F1E706225242EEE7C0465C
:108E1000C0060020F563000030B587B004001E488E
:108E20001E4DA84721001E48A8470D201D4B9847FE
:108E3000002C2ADB22011C4B9B189B7A012B27D18B
:108E400005A90C70184B9B18DA884A8000229A7288
:108E5000DA80DB7A4921DB0700D505310023029354
:108E600001930093043305AA0220104DA847051E64
:108E700001D009256D4224010B4820181022002141
:108E80000B4B9847280007B030BD06256D42F9E727
:108E900006256D42F6E7C046A4F0000029CE00008A
:108EA0001CFB00005DCE0000C0060020F563000042
:108EB000E162000070B582B000230193002600211A
:108EC0000278441C05300B0009E09D005B195B0033
:108ED0009B18DBB222000134A0420AD012782E2A5D
:108EE0000AD0002A0CD0303AD2B2092AEDD900209B
:108EF00000E0002002B070BD6A46B354200002E0DA
:108F00006A46B35420000136042ED9D104226946A2
:108F100001A8024B98470198ECE7C046CD620000DB
:108F200010B584B004000B4B9847C3B2402B0DD84A
:108F3000FF2303400133002202920192009222009B
:108F40004A210220044CA04704B010BD0620404234
:108F5000FAE7C046F1620000F563000070B582B028
:108F600004002A4B98470005000D294B0025984224
:108F700002D8280002B070BD01A92648264B9847A8
:108F8000051EF6D1254B019A13402549194301913D
:108F90002048244B9847002C20D000212248214C07
:108FA000A047AB212148A04701212148A04700212B
:108FB0002048A04781212048A047204E204C300067
:108FC000A0470128FBD1154B019A1340802149028B
:108FD000194301910F48134B9847CAE700211248E3
:108FE000104CA047B9211148A04701211048A047C3
:108FF00000211048A04781210F48A0470F4E104C78
:109000003000A0470128FBD1DDE7C046D97200003F
:109010009F0300001014000029770000FF8F88F8DC
:109020000010110135770000080201000C02010058
:10903000140201001C0201000402010018020100D8
:109040001D7700000C4B1B68002B06D1EFF310833B
:10905000002B07D00022094B1A70074A136801330E
:109060001360704772B6BFF35F8F0022044B1A7013
:109070000132024B1A70F0E7300400203404002063
:109080000A000020084B1A68013A1A601B68002B7E
:1090900009D1064B1B78002B05D00122044B1A7016
:1090A000BFF35F8F62B670473004002034040020A5
:1090B0000A000020F0B583B001AC012565700027DF
:1090C000A770257021001720064EB0478022120499
:1090D000054B9A612770657021003720B04703B0B7
:1090E000F0BDC046BD920000004400411723002A95
:1090F00001D0180070478B00064A9B58002B03D004
:10910000834205D01D23F4E7890088500023F0E74F
:109110000023EEE7800700201723002901D0180064
:10912000704700221F2800D8024A01238340D360E1
:109130000023F4E7001800401723002901D018008D
:10914000704700221F2800D8024A01238340936001
:109150000023F4E70018004070B50022104B1A708D
:10916000002310491F25104E0D4C0AE00D4908E060
:1091700023780133DBB223700F2B10D800211F2B73
:10918000F4D9280018400122824008691042EFD02B
:109190000A619B009B59002BEAD09847E8E770BD15
:1091A0007C0700200018004080070020044A137844
:1091B00002210B43137053785BB2002BFBDB70472B
:1091C0000018004000B583B0124A936940210B4358
:1091D000936101A900230B7005200F4B98470520D0
:1091E0000E4B98470E4A137801210B4313705378A6
:1091F0005BB2002BFBDB0B4B19004031002204C398
:109200009942FCD11022084B1A60084B984703B0D2
:1092100000BDC04600040040C5AB000039AB0000F3
:10922000001800408007002000E100E0AD91000040
:109230000023036043600122027242728372023390
:10924000C3727047F0B583B005000C0001A900237C
:109250004B70CB7023790B70237A8B702078154B71
:10926000984700201F2D00D8134807222A4092005B
:10927000E77AA37A002B01D008231F43EB089B0059
:10928000C31899690F269640B14397403A000A43A4
:109290009A61637A002B06D143690122AA40934365
:1092A000436103B0F0BD42690123AB401343436106
:1092B000F7E7C046BDAC00000018004000B583B021
:1092C00001AB80221A700A785A704A789A708A78AC
:1092D000DA701900014B984703B000BDBDAC000027
:1092E00010B50F4B1A681468518A138A1940207AF6
:1092F000E379034058B2002806DBDB0703D5CB0730
:109300000AD40123237210BD8B0702D48023237259
:10931000F9E7D3689847F9E793689847F1E7C046BB
:10932000C0070020F0B5DE4657464E464546E0B53C
:1093300087B08046049116001F0000220023002100
:109340008B463F2401202100009601975C46039440
:109350004446059413E02024641A0500E540A8461D
:1093600014E0009C019D121BAB415C464D462C4312
:10937000A346039C45462C430394013925D320245E
:1093800064420C19E7D40500A540A84604008C40AF
:10939000A14692185B4114001D00059E4F463E40B9
:1093A000B446049E47463E40B246664657463E4354
:1093B00003D00600264332002B00009C019D9D42F5
:1093C000DBD8CED19442D8D8CBE7039B58461900BE
:1093D00007B03CBC90469946A246AB46F0BD10B5DE
:1093E000490840230024814202D2180010BD1C000D
:1093F000091A631C9BB28842F9D94023FF2CF4D888
:1094000014800023F1E70000F0B583B00F001600D0
:1094100008AA117804004C434022BC4202D9100033
:1094200003B0F0BD002B14D1020008000021194C3C
:10943000A04701003A0000230020174CA04700225B
:109440000123121A8B41120C1B041A433280002292
:10945000E5E70022012BF9D10A00002300210D4C81
:10946000A04702000B0000920193380000210A4C33
:10947000A047050080239B0140229842CFD8790F56
:10948000F800009A019BA047EA00821AD2B2520368
:109490002A43DBE7C1CB00002593000010B582B062
:1094A00004000E4B1B78002B07D0002905D10B4B75
:1094B0005B78834210D01D200CE001A90C701320B2
:1094C000074B98471320074B9847044B5C700122C9
:1094D0001A70002002B010BD0020FBE73804002005
:1094E000C5AB000039AB0000404B984231D00AD9DF
:1094F0003F4B98424DD03F4B98425AD03E4B9842FA
:1095000037D0002070473D4B98420CD03C4B9842DE
:10951000F7D1012917D000295DD0022915D00329E0
:1095200015D00020EEE7012907D0002951D00229EB
:1095300005D0032905D00020E4E73248E2E73248AD
:10954000E0E73248DEE73248DCE73248DAE7324823
:10955000D8E7012907D000293FD0022905D00329E7
:1095600005D00020CEE72D48CCE72D48CAE72D488E
:10957000C8E7012907D0002931D0022905D00329E5
:1095800005D00020BEE72848BCE72848BAE72848AD
:10959000B8E7012907D0002923D0022905D00329E3
:1095A00005D00020AEE72348ACE72348AAE72348CC
:1095B000A8E7012907D0002915D0022905D00329E1
:1095C00005D000209EE71E489CE71E489AE71E48EB
:1095D00098E71E4896E7032094E71D4892E71D4848
:1095E00090E71D488EE71D488CE7C04600100042FA
:1095F00000180042001C0042001400420008004213
:10960000000C0042030005000300060003000700F1
:109610000300010003001E0003001F0003000900F7
:1096200003000A0003000B000300110003001200F6
:109630000300130003000D0003000E0003000F00E1
:1096400003001700030018000300190003000400C2
:10965000030008000300100003000C0003001600C4
:1096600030B587B00B4B6A4632CB32C232CB32C2F6
:10967000009B83420BD001239A00694652588242D4
:1096800006D00133062BF7D1002007B030BD0023F0
:10969000D8B2FAE750FB000070470000F0B50A4B63
:1096A0001B78002B0CD1094F094E0A4D0024DE51C6
:1096B0005A1914600433182BF9D10122024B1A7085
:1096C0008000024BC150F0BD3A0400203C04002051
:1096D00099960000C407002000B583B009236A46AC
:1096E000137001335370013393700133D37001331E
:1096F000137101335371034B98476B46185603B0EF
:1097000000BDC0466196000010B5024B1B680020EA
:10971000984710BD3C04002010B5024B5B68012047
:10972000984710BD3C04002010B5024B9B680220F6
:10973000984710BD3C04002010B5024BDB680320A5
:10974000984710BD3C04002010B5024B1B69042053
:10975000984710BD3C04002010B5024B5B69052002
:10976000984710BD3C040020F0B58BB005000C00FC
:10977000160029600B681C209B0701D50BB0F0BDBB
:109780000B681738DB07F9D408006F4B98476F4A0E
:10979000116A871C0123BB400B43136209A92427CC
:1097A000F35D0B701430C3B201931800684B9847F7
:1097B0000198684B9847F05D0021674B98473378D4
:1097C000012B3FD03378002B03D1236808221343A9
:1097D00023602B000C3329002831002204C38B4264
:1097E000FCD10023EB62AB620024AB862B863633C0
:1097F000EC540133EC540133EC54353B6B722C7157
:109800002868514B984707005449554B9847BF006B
:10981000544BFD502F6804AB80221A705C707F3A65
:109820009A70DC703378002B02D1002204AB9A705E
:10983000B36A0593F36A0693336B0793736B0893CC
:1098400000240BE023680C2213432360BAE738009E
:10985000454B98470AE00134042C10D0E1B2A30034
:1098600002AA0C201218D0580028F0D0431CF2D0C5
:1098700004A90870000CC0B23C4B9847EBE7337862
:109880006B71337CAB71B37CEB71337D2B72002237
:1098900002ABDA803378012B12D03378002B26D13B
:1098A000B069B28B7B6AF17F0904B47F214319430D
:1098B00079622023F35C002B1BD040231A4318E06D
:1098C0002868214B98471430C0B2294B98470100B3
:1098D00002AB9A1DB069274B984703001720002B55
:1098E00000D04BE702AB06331B783B73D5E7002271
:1098F00000207368B1680B43F1680B430343317C6C
:109900000A43717C002903D11B498978890701D555
:1099100080210B43B17C002902D0802189020A43B7
:10992000F17C002902D0802189000A43317D002981
:1099300002D0802189010A4339680B433B607B6870
:109940001A437A60002019E7619600000004004085
:10995000C5AB000039AB00009D940000719A000077
:109960009D960000C4070020E9940000BDAC0000F3
:10997000E1AB0000DF9300000020004110B5447906
:109980001523012C01D0180010BD047A0023002CEF
:10999000F9D1002A58D04B78002B44D003681B7EA5
:1099A000DB0710D40A78D1090023002904D1530918
:1099B000DB012E498C4663441F21114001228A405D
:1099C0009A610523DFE70A78D4090023002C04D12B
:1099D0005309DB01254CA44663441F241440012293
:1099E000A2405A6103681A7ED20701D58A789A622A
:1099F000C2790023002AC6D102680421137E0B42DB
:109A0000FCD0117E00234907BDD5538B5B0701D5E0
:109A1000042353838379012B02D0936A0023B2E796
:109A2000936A0023AFE70A78D1090023002904D103
:109A30005309DB010D498C4663441F21114001226B
:109A40008A405A6100239EE70A78D1090023002941
:109A500004D15309DB0105498C4663441F211140A1
:109A600001228A409A6100238DE7C04600440041EC
:109A7000F8B58000854BC45826683723E35C36224E
:109A8000A75C1F40337EB57D1D40EB072ED5637963
:109A9000012B25D0002B29D1637A002B26D02168F9
:109AA000E26A1378DBB2501CE062A079012800D191
:109AB00069E09BB2DB05DB0D8B62A38E013B9BB2A1
:109AC000A386A38E9BB2002B10D101333375637A2A
:109AD000012B0BD1E379002B08D10233B37505E0DC
