S02400004553453531365F526574726F5F737461745F426F6F746C6F616465722E7372656397
S1130000702200209D1D0000991D0000991D000014
S113001000000000000000000000000000000000DC
S1130020000000000000000000000000991D000016
S11300300000000000000000991D0000991D000050
S1130040991D0000991D0000991D0000991D0000D4
S1130050991D0000991D0000991D0000991D0000C4
S1130060991D00005D0F00006D0F00007D0F000062
S11300708D0F00009D0F0000AD0F0000991D0000C2
S1130080991D0000991D0000991D0000991D000094
S1130090991D00000000000000000000991D0000F0
S11300A0991D0000991D0000991D0000991D000074
S11300B00000000010B5064C2378002B07D1054B37
S11300C0002B02D0044800E000BF0123237010BDC0
S11300D06800002000000000883D0000084B10B5B7
S11300E0002B03D00749084800E000BF0748036815
S11300F0002B00D110BD064B002BFBD09847F9E72D
S1130100000000006C000020883D0000883D0000D5
S11301100000000030B589B004000023079305688F
S1130120374B98472B79002B66D101332B71354B14
S113013098479F2201AB1A706179CA090023002AEB
S113014004D14B09DB01304A944663441F220A4020
S1130150012001009140596103A901AB03938880F8
S113016000238B8100222068284B984720688379DC
S1130170052BFCD003AA07AB039303239380002130
S1130180224B984722689379052BFCD06279D109D8
S11301900023002904D15309DB011B498C46634425
S11301A01F21114001228A409A61002322681371A1
S11301B02379092B15D89B00154AD3589F46154B14
S11301C012E0154B10E0154B0EE0154B0CE0154BEF
S11301D00AE0154B08E0154B06E0154B04E0154BFF
S11301E002E0002300E0144B079A9A4202D0142044
S11301F009B030BD0020FBE7024B98470520F7E724
S1130200BD0F0000FD0F000000440041610E00001E
S1130210C43800001F4300001F4401001F450200B2
S11302201F4501001F4602001F4603001F860000F1
S11302301F4701001F4800001F650000F0B589B08A
S113024004000E0001921F005A180379092B15D8D7
S11302509B003A49CB589F468023DB0212E080235F
S11302601B030FE080235B030CE080239B0309E066
S11302708023DB0306E080231B0403E0002301E06A
S113028080235B0217209A4201D909B0F0BD25688A
S11302902B4B98472B79002B4BD101332B71294BD6
S11302A098470B2302AA1370D670330A9370360C46
S11302B056706279D1090023002904D15309DB0166
S11302C021498C4663441F21114001228A405A610E
S11302D004A902AB049305238B8000238B810022A5
S11302E020681A4B984720688379052BFCD0002F8F
S11302F013D16279D1090023002904D15309DB0108
S113030011498C4663441F21114001228A409A619D
S1130310236800221A710020B7E704AA019B049302
S113032097800021094B984722689379052BFCD0CC
S1130330DFE7044B98470520A7E7C046EC380000E8
S1130340BD0F0000FD0F000000440041610E0000DD
S113035030B587B004000568214B98472B79002BF2
S113036038D101332B711F4B9847B9236A46137058
S11303706179CA090023002A04D14B09DB011A4A16
S1130380944663441F220A400120010091405961B0
S113039002A96B460293888000238B810022206887
S11303A0124B984722689379052BFCD06279D109C6
S11303B00023002904D15309DB010B498C46634413
S11303C01F21114001228A409A61236800221A7178
S11303D0002002E0034B9847052007B030BDC0461B
S11303E0BD0F0000FD0F000000440041610E00003D
S11303F030B587B004000568214B98472B79002B52
S113040038D101332B711F4B9847AB236A461370C5
S11304106179CA090023002A04D14B09DB011A4A75
S1130420944663441F220A4001200100914059610F
S113043002A96B460293888000238B8100222068E6
S1130440124B984722689379052BFCD06279D10925
S11304500023002904D15309DB010B498C46634472
S11304601F21114001228A409A61236800221A71D7
S1130470002002E0034B9847052007B030BDC0467A
S1130480BD0F0000FD0F000000440041610E00009C
S1130490F0B5C64600B5032307009F431368DB434A
S11304A00C00032902D9444203200440002C16D036
S11304B0091B3E1D3D68E00040422030C5406B40B2
S11304C0E00019D00124274D03E05B08013800281F
S11304D004D01C42F9D05B086B40F7E737000320D7
S11304E00C0084431ED0081B8446890888463E00BD
S11304F00D0001201B4C0BE03700F0E75B080139CD
S1130500002904D01842F9D05B086340F7E70436A9
S1130510013D03D331684B402021F3E74146890074
S11305207F186146002917D03C68C800404220303B
S113053001256D42C540280020404340C9000BD02E
S11305400120084C03E05B080139002904D018425B
S1130550F9D05B086340F7E7DB431360002004BC79
S11305609046F0BD2083B8ED10B51E4AD36904212E
S11305700B43D3611C4B2022FF321A831A7D0523BF
S1130580D20701D4180010BD03781B02C0229200C8
S113059013404178C901FF220A401343817849007E
S11305A01E220A401343C27892048021C9020A40E1
S11305B0134302791204C02189020A4013430A4AF0
S11305C0536093685B035B0F084908249C400C80CC
S11305D093684B8043780B71138BDB05DB0F1B0196
S11305E0D0E7C046000400400040004184000020E1
S11305F030B50400224A1088538843438B4206D204
S11306008022920118201F4BCB1893420ED81E4B08
S11306105D688022D2022A435A602022FF321A8364
S11306201B7DDB0703D4184B5D60052030BD452CD2
S113063022D8A300154AD3589F46134B1B8BDB05C6
S113064003D5114B5D601020F0E7890849000E4B7B
S1130650D96103E0890849000B4BD961A520000248
S11306600443094B1C80190001220B7D1342FCD06A
S1130670054B5D600020D9E7034B5D601720D5E78B
S11306808400002000C07FFF0040004114390000B6
S1130690F8B5254B1D885B886B431824834201D22F
S11306A02000F8BD6B1E1842FAD1013C9542F7D3E5
S11306B01E4B1B7D123CDB07F2D51D4C1B4B1C80D3
S11306C01D0001242B7D2342FCD02024FF34174B32
S11306D01C83002A22D0012305009D430023571EBA
S11306E009E0CE187678360234432C8002339BB26C
S11306F002359A4204D9CC5CBB42F2DBA4B2F4E7E3
S1130700094B1B790024002BCAD13F2AC8D80022E8
S113071001000420074B98470400C1E7024B1B79F2
S11307200024002BF3D0BBE78400002000400041EC
S113073044A5FFFFF105000070B5184B1D885B88C8
S11307406B431824834201D2200070BD6B1E1842F3
S1130750FAD1013C9542F7D3114B1B7D123CDB07C8
S1130760F2D52024FF340E4B1C83002A14D001231D
S113077098430023561E04E002339BB202309A428F
S113078008D90488A4B2CC54B342F5DACD18240AAB
S11307906C70F1E70024D7E70024D5E7840000203B
S11307A000400041134B1A885B885343182183424D
S11307B001D2080070479200013A1042F9D10E4B61
S11307C01B7D1339DB07F4D50B4B2022FF321A8330
S11307D080084000D861094A1A80190001220B7D63
S11307E01342FCD0044B198B1C200140481E81414C
S11307F08900DEE7840000200040004102A5FFFFDD
S1130800F0B5DE4657464E464546E0B587B08046CD
S1130810049116001F000022002300218B463F2470
S113082001202100009601975C46039444460594F8
S113083013E02024641A0500E540A84614E0009C57
S1130840019D121BAB415C464D462C43A346039CC1
S113085045462C430394013925D3202464420C19C2
S1130860E7D40500A540A84604008C40A146921890
S11308705B4114001D00059E4F463E40B446049E55
S113088047463E40B246664657463E4303D00600BE
S1130890264332002B00009C019D9D42DBD8CED123
S11308A09442D8D8CBE7039B5846190007B03CBC08
S11308B090469946A246AB46F0BD10B54908402380
S11308C00024814202D2180010BD1C00091A631CC6
S11308D09BB28842F9D94023FF2CF4D8148000231A
S11308E0F1E70000F0B583B00F00160008AA1178F4
S11308F004004C434022BC4202D9100003B0F0BDB6
S1130900002B14D1020008000021194CA04701005B
S11309103A0000230020174CA04700220123121A9A
S11309208B41120C1B041A4332800022E5E700229B
S1130930012BF9D10A00002300210D4CA04702002D
S11309400B0000920193380000210A4CA0470500D7
S113095080239B0140229842CFD8790FF800009A57
S1130960019BA047EA00821AD2B252032A43DBE772
S11309706D2700000108000010B582B004000E4B82
S11309801B78002B07D0002905D10B4B5B788342E1
S113099010D01D200CE001A90C701320074B9847C0
S11309A01320074B9847044B5C7001221A700020F7
S11309B002B010BD0020FBE78C000020411C0000A9
S11309C0B51B0000404B984231D00AD93F4B9842A6
S11309D04DD03F4B98425AD03E4B984237D00020DE
S11309E070473D4B98420CD03C4B9842F7D10129BB
S11309F017D000295DD0022915D0032915D0002075
S1130A00EEE7012907D0002951D0022905D0032996
S1130A1005D00020E4E73248E2E73248E0E7324814
S1130A20DEE73248DCE73248DAE73248D8E7012922
S1130A3007D000293FD0022905D0032905D0002082
S1130A40CEE72D48CCE72D48CAE72D48C8E7012951
S1130A5007D0002931D0022905D0032905D0002070
S1130A60BEE72848BCE72848BAE72848B8E7012980
S1130A7007D0002923D0022905D0032905D000205E
S1130A80AEE72348ACE72348AAE72348A8E70129AF
S1130A9007D0002915D0022905D0032905D000204C
S1130AA09EE71E489CE71E489AE71E4898E71E48A2
S1130AB096E7032094E71D4892E71D4890E71D48F8
S1130AC08EE71D488CE7C046001000420018004223
S1130AD0001C00420014004200080042000C0042C6
S1130AE003000500030006000300070003000100E3
S1130AF003001E0003001F000300090003000A0096
S1130B0003000B0003001100030012000300130094
S1130B1003000D0003000E0003000F000300170084
S1130B200300180003001900030004000300080078
S1130B300300100003000C000300160030B587B05A
S1130B400B4B6A4632CB32C232CB32C2009B834259
S1130B500BD001239A0069465258824206D00133D1
S1130B60062BF7D1002007B030BD0023D8B2FAE736
S1130B702C3A000070B58000404BC3585C79E4B255
S1130B801868027E817D0A40D10704D5596901297C
S1130B901CD9012C63D051070FD5D968002941D045
S1130BA04E1C856A0D7059690139596119890139D9
S1130BB089B2002939D0DE601981920705D5022255
S1130BC0027501325A7100229A7170BD0131596166
S1130BD0002C46D184629C69A689002E04D09C69AD
S1130BE0A58A0024002DD6D11D89AD1900248D427B
S1130BF0D1D801210175CEE7DD692E000836DE610A
S1130C00AD89002D04D0D969096819615D81C2E7F5
S1130C10012C02D000245C71DDE701210175013152
S1130C208175B8E7856A0E00BDE799690D0008353E
S1130C309D618989002904D09C692468DC6019813C
S1130C40BBE70021416004310175002C04D1013956
S1130C50597100219971B0E701215971ADE7013152
S1130C6059611E69357885625D89013DADB2002DFB
S1130C70C2D001361E615D818DE7C04608020020A6
S1130C80F0B5C64600B584B080460C0015000800D7
S1130C90594B9847070043461C60584A116A023072
S1130CA0012383400B43136203A92B790B703E008D
S1130CB01436F6B23000524B98473000514B9847E7
S1130CC028790021504B9847E369002BFCD10C3361
S1130CD02360AA68EB681A432B691A436B79802155
S1130CE0002B04D1494B9B789B07DB0FD901236868
S1130CF013430B4323603000454B984701000A22FD
S1130D006A442868434B9847061E05D017263000CE
S1130D1004B004BC9046F0BD0A236B441B782373D3
S1130D20686900281FD0431C22D1286A00282BD0D0
S1130D30431C2ED1AB68DB0348D5E869002834D0C6
S1130D40431C37D1002342469361D36103224146B9
S1130D504A718B7130493800304B9847BF00304B93
S1130D604246FA50D3E7002120002E4B9847DAE799
S1130D7001A900234B7001228A70CB700870000C0B
S1130D80C0B2294B9847D0E703212000254B984750
S1130D90CEE701A900234B7001228A70CB70087042
S1130DA0000CC0B2204B9847C4E7022120001D4B21
S1130DB09847C5E701A900234B7001228A70CB70C4
S1130DC00870000CC0B2184B9847BBE7A86900280C
S1130DD00DD0431CB6D001A900234B7001228A70A8
S1130DE0CB700870000CC0B20F4B9847AAE70121E2
S1130DF020000C4B9847ECE73D0B0000000400403A
S1130E00411C0000B51B00007909000000200041CE
S1130E105D1C0000BB080000750B0000F10E000013
S1130E2008020020C5090000391D000010B5026841
S1130E3007231375D369002BFCD1136802210B43DC
S1130E4013600068044B98471F2318401E3B8340DF
S1130E50024A136010BDC0462D0F000000E100E0FF
S1130E60F8B505000E00170004681E4B9847AB79CF
S1130E70052B1FD00523AB711B4B9847EE61AF6167
S1130E80002E24D0002F19D002236B71B3886B81FC
S1130E9033682B61BB882B813B68EB6000236B615B
S1130EA0052280218902E369002BFCD16160A275CF
S1130EB00020F8BD0C4B98470520FAE701236B711D
S1130EC0B3886B8133682B6101220021EBE7002397
S1130ED06B71BA882A813A68EA606B6105228021C5
S1130EE08902E0E7BD0F0000FD0F0000704700001D
S1130EF0F0B50A4B1B78002B0CD1094F094E0A4D53
S1130F000024DE515A1914600433182BF9D101223C
S1130F10024B1A708000024BC150F0BD8E000020BD
S1130F2090000020ED0E00000802002000B583B000
S1130F3009236A46137001335370013393700133EC
S1130F40D3700133137101335371034B98476B46CC
S1130F50185603B000BDC0463D0B000010B5024B4F
S1130F601B680020984710BD9000002010B5024B6C
S1130F705B680120984710BD9000002010B5024B1B
S1130F809B680220984710BD9000002010B5024BCA
S1130F90DB680320984710BD9000002010B5024B79
S1130FA01B690420984710BD9000002010B5024B27
S1130FB05B690520984710BD900000200C4B1B680E
S1130FC0002B06D1EFF31083002B07D00022094B2E
S1130FD01A70074A136801331360704772B6BFF37F
S1130FE05F8F0022044B1A700132024B1A70F0E733
S1130FF0A8000020AC00002000000020084B1A6864
S1131000013A1A601B68002B09D1064B1B78002B90
S113101005D00122044B1A70BFF35F8F62B670478C
S1131020A8000020AC00002000000020F0B583B030
S113103001AC012565700027A770257021001720D9
S1131040064EB04780221204054B9A6127706570E2
S113105021003720B04703B0F0BDC0466510000042
S11310600044004100B583B001AB80221A700A78B5
S11310705A704A789A708A78DA701900014B984746
S113108003B000BD391D0000F0B5DE4657464E469C
S11310904546E0B591B005000C0016002960080033
S11310A0BC4B9847020023680520DB0706D511B026
S11310B03CBC90469946A246AB46F0BD2368173027
S11310C09B07F4D4B449086A971C0123BB4003432B
S11310D00B620FA92D27F35D0B701432D3B2029368
S11310E01800AE4B98470298AD4B9847F05D00212D
S11310F0AC4B9847F37A6B712423F35CAB712523D3
S1131100F35CEB71F37E2B72337F6B722B68984622
S11311101800A04B9847143000220E2306A98C46D1
S113112063441A80328A02928023DB019A4200D1FE
S11311309EE00FD9C023DB01029A9A4200D192E0CB
S113114080231B029A4200D01FE10323069300234D
S1131150079308E080239B019A4200D015E11023F5
S113116006930F3B079333680593F36803937369FE
S11311700493337E9B462623F35C9A467368994610
S1131180002B00D1A0E080235B05994500D184E0C9
S1131190737E002B02D0B37E424693732A68029F6B
S11311A0D369002BFCD10E3306AA944663441B88F2
S11311B042469381059B039A1343049A13434A4678
S11311C013431F435B461B021F4353465B071F43E6
S11311D02723F35C002B01D104331F43737E9B024E
S11311E0327F52021343727F120213432422B25CF1
S11311F0520413432522B25C12041343B17AF27AE7
S1131200114319433389FF2B00D181E0802252041A
S1131210174319432C23F35C002B03D1624B9B78B7
S11312209B0701D580231F432A68D369002BFCD177
S1131230434659602A68D369002BFCD143461F609A
S11312400EAB80221A7000225A70DA709A70336BD7
S11312500A93736B0B93B36B0C93F36B02930D9321
S113126000270AAE63E008230693073B07937AE757
S113127033680593F368039373690493337E9B4641
S11312802623F35C9A4673689946002B18D0802372
S11312905B05994501D0002025E02723F35C002B52
S11312A000D075E7336A1F00C0B2404B9847010075
S11312B00E2206AB9C46624438003D4B984712E030
S11312C008230693002307932723F35C002B0ED0F7
S11312D0069B0093079B0E2206A98C466244B16AC2
S11312E0306A344FB847002800D0E0E650E7336A4C
S11312F01F00C0B22D4B98470100069B0093079B2B
S11313000E2206A88446624438002A4FB847EAE70A
S1131310F37E002B00D17DE78023DB041F4379E7B4
S11313202000254B984707E00137042F0DD0F9B270
S1131330BB0098590028F3D0431CF5D00EA90870BF
S1131340000CC0B21D4B9847EEE70023EB602B6105
S11313506B61AB61EB612B62AB626B620022EB856C
S1131360AB853033EA540133EA540133EA54013390
S1131370EA542868074B984704001149114B9847D1
S1131380A400114BE550002091E61023069300239E
S11313900793E8E63D0B000000040040411C0000F8
S11313A0B51B000079090000002000415D1C00000D
S11313B0BB080000E5080000C5090000391D000055
S11313C069140000F10E000008020020C2791C23F9
S11313D0002A01D118007047C28D92B2173B002A2F
S11313E0F8D10368DA69002AFCD1198502211A7E32
S11313F00A42FCD00023EDE782791C23002A01D1A4
S113140018007047828D92B2173B002AF8D1026807
S1131410107E4007F4D5D369002BFCD1538BDBB28B
S113142098061DD0980703D5022353831833E7E7A2
S1131430580703D5042353831A33E1E7D80703D5A8
S1131440012353831233DBE7D80603D510235383D8
S11314503233D5E79B0603D5202353832133CFE7CB
S1131460138D0B800023CBE7F8B58000624BC55881
S11314702C68E369002BFCD1237EA67D1E4030231B
S1131480EB5C3122AF5C1F40F30722D5EB8D9BB29E
S1131490002B1CD0AA6A1378DBB2511CA9626979AB
S11314A001290ED09BB2DB05DB0D2385EB8D013BBF
S11314B09BB2EB85002B0CD1013323750133A3754B
S11314C007E0517809020B430232AA62EBE70123D9
S11314D02375B30706D50223237500223133EA545A
S11314E0FB071AD4730765D5AB8D9BB2002B5FD075
S11314F0638BDBB21A0714D43F221340002B34D081
S11315009A0711D51A223223EA54303B63837B07AE
S113151050D528006B6998474CE02800EB68984741
S1131520E0E737221340E9E75A0705D51E223223A4
S1131530EA542E3B6383EAE7DA0705D51322322304
S1131540EA54313B6383E2E7DA0605D542223223CB
S1131550EA54223B6383DAE720221A42D7D02132AD
S11315603223EA54123B6383D1E7238DDB05DB0D81
S1131570DAB2696A0A706A6A511C69626979012976
S113158010D0AB8D013B9BB2AB85002B12D1043341
S1131590237500222E33EA54BB070BD528002B6990
S11315A0984707E01B0A53706B6A01336B62E8E7E4
S11315B004232375F30604D5102323752376FB0631
S11315C00ED4B30604D52023237523763B070BD40E
S11315D0330704D5082323752376BB0608D4F8BD46
S11315E02800EB699847ECE72800AB699847EFE7D8
S11315F02B6A28009847F2E70802002010B5082853
S113160003D880001B4B1B589F46002030E01A4B28
S113161018692DE0194B1B6A9B059B0F1848D8408D
S113162026E0154B586923E0134B1B6800209B07E9
S11316301ED512491022CB681A42FCD00E4B1B68EF
S11316405B0701D40F4813E000200F4B98470A4B67
S11316509B681B041B0C58430AE05023074AD35CC5
S113166000205B0704D5044BD86801E08020000209
S113167010BDC046443A0000B000002000080040FD
S113168000127A00006CDC025D1C000070B50C498D
S11316900B6A047885784078012210408001402646
S11316A0B34303432A40D2018020834313430322DC
S11316B0224012020348034013430B6270BDC0462C
S11316C000080040FFFCFFFFF0B5DE4657464E46DB
S11316D04546E0B50100264B9B469B8A4578007839
S11316E04242424191468878CA7894460A799046A3
S11316F04E7B0F7B8C7B8A681E494A6101214A46D6
S113170092009146042293434A46134342460A40B8
S1131710D2009046082293434246134362460A404D
S11317201201944610229343624613430840400139
S11317302022934303430F40BF01402083433B4394
S11317400E40F601403083433343793805402D027F
S1131750094803402B4321400903084803400B4335
S11317605A4693823CBC90469946A246AB46F0BD8D
S113177000080040B0000020FFF8FFFFFFEFFFFF6C
S113178010B5037A9B061B0C42899205920D1343F4
S113179018494B608379C279134342888488224371
S11317A013434278D20113430B600378042B11D006
S11317B0202B0ED1037B9B06028A1343C289120499
S11317C00D490A4013430B4A936011680B4B0B43BA
S11317D0136010BD037B9B06028A1343C289120463
S11317E005490A401343034A9360136804210B43D9
S11317F01360EEE7B00000200000FF0324040000A3
S1131800082803D88000254B1B589F46172044E026
S1131810234A136A02210B43136200203DE0204A4D
S1131820936902210B439361002036E01C4A138A1A
S113183002210B43138200202FE0194A938A0221CC
S11318400B439382002028E016490B6802221343BD
S11318500B60134B9A8419000E32CB681A42FCD0E9
S1131860104A91680E4BD96252689A6200229A8497
S113187019001032CB681A42FCD00A4B1B689BB289
S1131880074A9384002008E0054944228B5C022027
S113189003438B54002000E000207047683A0000A6
S11318A000080040B0000020F0B58FB0C222D20082
S11318B0474B9A60474A53681E218B431A390B439E
S11318C05360022201AB1A700024434DE0B201A917
S11318D0A8470134252CF9D10AA80023037083708A
S11318E0802212028260C370012202710373837327
S11318F0023242704373394B98470520384B98475E
S113190033490222CB681A42FCD0314A938A80219F
S11319100B43938205AB00210022598099809A7170
S1131920DA713F3159813B3919705A702D4B1B685C
S11319309B0E3F2B4AD005A803722B4B038207232F
S113194003733833C381294B984704A80025457095
S1131950012686700570264B98470620204FB8470D
S1131960244B984701AC0296657025726572052375
S1131970237021000120204B984701201F4B9847DA
S1131980267021000020144B984700201C4B9847D8
S11319900720B8470E49D022CB681340D02BFBD187
S11319A0184A0023137253729372D37201A901224D
S11319B04A604B700B724B7207330B7000200E4B56
S11319C0984700200D4B98470FB0F0BD203BB2E77D
S11319D00008004000400041411C0000C9160000FE
S11319E00118000024608000B90500008117000080
S11319F08D160000091A00002D1A0000E51A0000D7
S1131A00B51B000000040040064A936908210B43FB
S1131A1093610122044B1A7019000B781342FCD114
S1131A207047C04600040040000C004070B506003A
S1131A3004000D782D0205434B78002B02D080233F
S1131A40DB021D434B7A002B02D080231B031D4372
S1131A504868012810D9431E184234D1022830D9CD
S1131A600223002201325B009842FBD81202324367
S1131A70140080235B031D430B7A002B02D08023C8
S1131A809B031D43134A53785BB2002BFBDB124BC1
S1131A909847124B1E700F4A53785BB2002BFBDB46
S1131AA00C4B9C601A0053785BB2002BFBDB094A99
S1131AB05368802149020B401D435560084B9847E9
S1131AC070BD0022D2E70402344380239B021D43ED
S1131AD0D2E7C046000C0040BD0F0000080C0040D7
S1131AE0FD0F000010B504000B4A53785BB2002BC5
S1131AF0FBDB0A4B98470A4B1C70074A53785BB2CE
S1131B00002BFBDB044A516880235B020B435360C8
S1131B10044B984710BDC046000C0040BD0F0000A8
S1131B20040C0040FD0F000070B504001A4A5378FD
S1131B305BB2002BFBDB194B9847194B1C70164A00
S1131B4053785BB2002BFBDB134E7068C004C00EED
S1131B50144B98470500124B1C707668F602F60F7A
S1131B60114B1C700C4A53785BB2002BFBDB0A4B05
S1131B709C682402240C0D4B9847002E07D1012C9D
S1131B8007D9210028000A4B9847050001E00134D9
S1131B90E540280070BDC046000C0040BD0F0000A9
S1131BA0040C0040FD150000080C0040FD0F00006F
S1131BB05526000010B50400064B9847064B1C70D0
S1131BC0064A53888021C9010B435380044B98472C
S1131BD010BDC046BD0F0000020C0040000C0040C8
S1131BE0FD0F000010B504000F4B98470F4B1C70FD
S1131BF00F4A53881B05180F53880E490B40538016
S1131C0053880D490B40538011008022D2014B8828
S1131C101342FCD106494A88030206480240134392
S1131C204B80064B984710BDBD0F0000020C0040CE
S1131C30000C0040FFF0FFFFFFBFFFFFFD0F00009F
S1131C4010B50C7824020443024B9847A4B2024B0B
S1131C505C8010BDE51B0000000C004010B50400C2
S1131C60064B9847064B1C70064B5C882405240FD2
S1131C70054B98472000054B984710BDBD0F000049
S1131C80020C0040000C0040FD0F0000291B000066
S1131C9030B5D378002B35D11378802B29D01B068F
S1131CA080246402234354780225AC4306D19478FB
S1131CB0002C20D18024A402234341605478013CA9
S1131CC0012C1CD90D042D0CA024E4052C431C4329
S1131CD084620D0CD02424062C431C438462D478E3
S1131CE0002C22D15B031CD59378012B1ED04161BB
S1131CF017E00023D7E7C024E4022343DDE70D4CBB
S1131D002340DFE741600C04240CA023DB052343BC
S1131D1083620C0CD0231B0623438362D378002BED
S1131D2003D15378013B012B02D930BD8161F8E71F
S1131D308160FAE7FFFFFBFF10B50A00C109002329
S1131D40002904D14309DB0105498C4663441F245F
S1131D502040012181401800024B984710BDC04625
S1131D6000440041911C00007047000010B5054B71
S1131D709847054B9847054B9847054B9847054BA3
S1131D80984710BDA91800002D100000691D00001F
S1131D90691D0000691D0000FEE70000F8B52A4A2D
S1131DA02A4B9A4211D01A00294B9A420DD2294A41
S1131DB003339B1A9B0801339B00002223482249CA
S1131DC08C58845004329A42FAD1234A234B9A42C3
S1131DD00AD2D34321495B1803218B4304339B1854
S1131DE0002102C29342FCD11D4AFF211D4B8B43AB
S1131DF09360FD3990235B001B4AD1501B4AD37872
S1131E000325AB4302242343D370D3780C27BB436D
S1131E1008263343D370164B987B302290432022FC
S1131E2010439873997BB943314399739A7BAA43BE
S1131E3022439A730F4A536880210B4353600E4B1D
S1131E4098470E4B9847FEE7883D000000000020AD
S1131E5068000020040000206800002070020020B8
S1131E6000ED00E00000000000700041005000415F
S1131E700048004100400041C12700005D220000ED
S1131E80F0B5C64600B50C00904600280FD1002AD4
S1131E9011DD8F18094E0A4D306821002B689847D0
S1131EA00134BC42F8D1404604BC9046F0BD012345
S1131EB05B429846F7E78046F5E7C04628020020D3
S1131EC020020020F0B5C64600B50E00150001380A
S1131ED0022810D8002A11D000240C4B98460C4F2D
S1131EE043461868315D3B689847002808DB013495
S1131EF0A542F5D106E00124644203E0140001E0A8
S1131F0001246442200004BC9046F0BD2802002055
S1131F10240200200300064A1268002A04D0044A5E
S1131F201068C318136070470249014A1160F6E74C
S1131F30C800002070220020012040427047802306
S1131F409B014B60002070470120704700207047C0
S1131F5080B500AF8023DB011A6882F30888034A46
S1131F609360034B1B689847BD4680BD00ED00E0BD
S1131F700440000070B582B005000E0000226B46DC
S1131F80DA80064C6B46991D2800A0470028F9D139
S1131F906B4606331B88337002B070BDF913000022
S1131FA070B505008CB2034E21002800B04700280C
S1131FB0FAD170BDCD130000F0B5DE4657464E464B
S1131FC04546E0B585B0061E544900D054495548ED
S1131FD0554B9847002E19D1544B5D882B0A019319
S1131FE0002E16D0A022D2029246ECB2621E944178
S1131FF0E4180026A64210DA370040373F023800C2
S11320004B4B98470528FAD00136F3E7494B5D88D6
S1132010E4E7802252029246E7E74748474B984755
S1132020002480235B009B46A946019B9C422BDB3A
S11320304D46EDB2002D66D027025346FB1801939E
S1132040ABB23F4A01993F483F4EB047002842D1C6
S1132050AB099B464034A4008023DB019846B84476
S113206047460026A2465E453AD04346FC1A344B06
S11320709C466444402221003800344B984705288C
S1132080F8D001364037EEE7250253465E195B4629
S11320902B4A31002B482C4FB847002804D031007C
S11320A02B48214B9847FEE78023DB019846A84440
S11320B00026234D330043440293AB190393234F6B
S11320C0402203990298B8470528F9D040365E4566
S11320D0F0D10134A9E701991D48134B9847FEE755
S11320E05446AB060FD03419A401B601144B9E1903
S11320F03F254B462B401D00144F2A003100200081
S1132100B8470528F9D013480C4B984705B03CBC98
S113211090469946A246AB46F0BDC046583C0000E6
S1132120603C0000683C0000192800002C020020DC
S1132130A5070000640200208C3C00000D2900006B
S113214000010020380200203D020000910600003A
S11321509C3C0000C03C000070B5FC25AD01084C5F
S11321602800A0470528FBD0064EFC25AD0102241B
S1132170220031002800044B98470528F8D070BD90
S1132180A50700003402002091060000F0B5CE46F9
S1132190474680B583B0804600281DD1284B5D8812
S11321A0AE093F231D4000240194B44220D0671C93
S11321B0FF37BF01402223493800234B98470528A5
S11321C0F8D0002C0ED10023019301AA40211D4810
S11321D01E4B98470134E8E71D4B5D88AE093F2349
S11321E01D40E0E701AA40211648184B9847F1E743
S11321F00134FF34A401ABB29946124F124E4A4641
S113220039002000B0470528F9D001AA29000D485B
S11322100E4B984701990F480F4B98474346002BA4
S11322200BD1074B5868019B181A43425841C0B25E
S113223003B00CBC90469946F0BD054B5868F2E7D4
S11322402C02002000010020390700009104000046
S1132250640200203C3C000019280000F0B5C6468A
S113226000B592B0C14B984701A800240470C04B3C
S11322705B68DB061B0F8370C47004714470BD4B34
S1132280984711A901234B708C700B700520BA4B31
S11322909847BA4EFC25AD01B94C02223100280002
S11322A0A0470528F9D0B54B1B78002B04D1B34BBC
S11322B05B78002B00D056E12022B24B9A6101AA30
S11322C0002414715471D4601461AF4B01938023C2
S11322D05B029360AD4B536101235B429361AC4B52
S11322E0D361AC4B1362AC4EAC493000AC4B984755
S11322F03000AC4B9847AC4D04232B7103336B7106
S11323002E60063B6A46537094701370694607202A
S1132310994B98476A79D1090023002904D15309BC
S1132320DB0198498C4663441F2632400124210076
S11323309140996101AA8023DB0501930023536036
S1132340FF21118100219372D3722420145401308F
S11323501454013013540130135493620530135450
S11323600130135453611382D37611761177517669
S1132370132393765177C4239B03D36001235B42D9
S113238013635363894B9363894BD363E1235B02E8
S11323901362884D884B1D608849894B19608949AF
S11323A0894B196089492800894B9847894B98467D
S11323B01B6898680021884FB84743461B685868D3
S11323C00021B8472F683800844B98470640B44032
S11323D0834B1C602B68DA69002AFCD13B6802320B
S11323E013433B607F48804B98476F487F4B984727
S11323F0002800D0FEE76C487D4B9847002803D0A6
S11324007C48794B9847FEE702237B4A00216648C3
S11324107A4CA047002804D000217948724B984791
S1132420FEE7754B1B787749002B00D17649724B38
S11324305B78744A002B00D1734A74486A4B9847FE
S11324400823734A8021490157486C4CA04700284F
S113245005D0802149016A48634B9847FEE76C4BDD
S11324605A8819885B686B485F4CA04708236A4AFE
S1132470802189014C48614CA047002805D0802167
S113248089015F48584B9847FEE7634B5A8819887F
S11324905B686248544CA047574B1B78002B1CD0F8
S11324A0364B00241C705C705D4B98475D485E4B56
S11324B0984720005D4B984720005D4B9847A04209
S11324C017D05C48584CA0472C4B00221A7001329C
S11324D05A70534B98475848A0475848424B98471E
S11324E03148574B9847002823D056484E4B9847BD
S11324F0FEE755484C4B98473F4B5B78002BECD09C
S113250001204A4B98470120494B984700280CD09A
S11325104848454CA047194B00221A7001325A70A2
S11325203F4B98474448A047D7E748483E4B984715
S1132530D3E7204D2C682000284B98471F231840D0
S11325401E3B8340802226498B502B68DA69002A7F
S1132550FCD123680232934323601E32094B5A6133
S11325603B4B9847FEE73A4B9847FBE76D1D00004D
S1132570004000416905000065100000340200209D
S11325803907000000440041001BB700020010009E
S1132590020012000200130044020020000C00425A
S11325A0810C00002D0E00003802002003002A00D8
S11325B003002B00CC00002028020020A11F0000F3
S11325C024020020751F0000200200200018004291
S11325D08910000004000020212900002D0F0000B4
S11325E000E100E09C3A000019280000F10300001B
S11325F015010000B83A0000400200203D0200002E
S1132600D03A00008C3A0000943A0000F43A0000FA
S11326102C0200201C3B0000640200204C3B000004
S1132620592100007C3B00000D290000B91F000067
S11326308D210000983B0000AC3B0000083C0000EA
S113264051030000243C0000C43B0000EC3B0000AC
S1132650511F0000002243088B4274D303098B42AC
S11326605FD3030A8B4244D3030B8B4228D3030C5E
S11326708B420DD3FF22090212BA030C8B4202D300
S11326801212090265D0030B8B4219D300E0090A28
S1132690C30B8B4201D3CB03C01A5241830B8B4231
S11326A001D38B03C01A5241430B8B4201D34B031A
S11326B0C01A5241030B8B4201D30B03C01A52417F
S11326C0C30A8B4201D3CB02C01A5241830A8B4204
S11326D001D38B02C01A5241430A8B4201D34B02ED
S11326E0C01A5241030A8B4201D30B02C01A524151
S11326F0CDD2C3098B4201D3CB01C01A5241830905
S11327008B4201D38B01C01A524143098B4201D33E
S11327104B01C01A524103098B4201D30B01C01A69
S11327205241C3088B4201D3CB00C01A52418308E3
S11327308B4201D38B00C01A524143088B4201D310
S11327404B00C01A5241411A00D201465241104670
S11327507047FFE701B5002000F006F802BDC0464F
S11327600029F7D076E770477047C046F0B5CE46EB
S1132770474615042D0C2E0080B50704140C3F0C9D
S11327809946030C7E435D43674363437F19340CCE
S1132790E4199C46A54203D980235B029846C444AD
S11327A04B46514343433604360C250C24046544FC
S11327B0A4195918491920000CBC90469946F0BD3B
S11327C070B500260C4D0D4C641BA410A64209D113
S11327D0002601F0C9FA0A4D0A4C641BA410A64253
S11327E005D170BDB300EB5898470136EEE7B3004E
S11327F0EB5898470136F2E7743D0000743D000041
S1132800743D0000783D000003008218934200D11B
S1132810704719700133F9E70FB40B4B13B51C68FB
S1132820002C05D0A369002B02D1200000F0F2FA9D
S113283005AB049AA1682000019300F0C1FC16BC0A
S113284008BC04B01847C0460400002070B5050059
S11328500E00002804D08369002B01D100F0DAFABD
S1132860AB69AC68002B02D1280000F0D3FA244BEA
S11328709C420FD16C68A3891B0702D52369002BE6
S113288020D12100280000F057F900281AD0012097
S1132890404270BD1B4B9C4201D1AC68EBE71A4B24
S11328A09C42E8D1EC68E6E7013B0136A360002BCB
S11328B004DAA269934216DB0A2914D023685A1C4D
S11328C0226019703178A3680029EDD1013BA3601F
S11328D0002B0FDA22000A31280000F0D7F8431C3D
S11328E0D5D00A20D5E72200280000F0CFF8431CF9
S11328F0E8D1CCE70A2023685A1C22601870C8E784
S1132900F43C0000143D0000D43C000010B5034B1F
S113291001001868FFF79AFF10BDC04604000020AC
S11329204A424A41802310B55200DB0000F002F80D
S113293010BD0000F0B51D004F4B85B01E680400AB
S11329400F000092002E05D0B369002B02D1300095
S113295000F060FA494B9C4250D17468009B022BF2
S113296005D0012B00D984E0002D00DA81E021009C
S1132970300000F0E1F9616B002908D023004433F2
S1132980994202D0300000F04BFB00236363002324
S1132990A3616360A3891B0603D52169300000F09D
S11329A03FFBA389364A1340A381009B022B5AD0D4
S11329B003AB02AA2100300000F0C2FAA389184335
S11329C0A081002D24D1029D280000F01FFB019559
S11329D0071E42D1029B0193AB4239D101204042F0
S11329E00223A2891343A3810023A3602300473356
S11329F0236023610123636105B0F0BD214B9C4238
S1132A0001D1B468AAE7204B9C42A7D1F468A5E79A
S1132A10002FD9D0B369002B02D1300000F0FAF9AD
S1132A20009B012B03D1A389009A1A43A281082099
S1132A30A389276027616561184018D001201840D8
S1132A400023984211D06D42A360A5611800D3E71A
S1132A50019800F0DBFA071EC0D08023A289019DF3
S1132A601343A381D6E70020BAE7A560C4E7A060BA
S1132A70C2E701204042BFE704000020F43C00000C
S1132A805CF3FFFF143D0000D43C0000F8B50500E2
S1132A900E001400002804D08369002B01D100F03B
S1132AA0B9F9224B9C422DD16C68A369A360A38918
S1132AB01B0731D52369002B2ED023682269F7B276
S1132AC0981A6369F6B2984205DB2100280000F0E9
S1132AD033F9002826D1A3680130013BA3602368A1
S1132AE05A1C22601F706369984204D0A389DB07D3
S1132AF01AD50A2E18D12100280000F01DF900284B
S1132B0012D00FE00A4B9C4201D1AC68CDE7094BCF
S1132B109C42CAD1EC68C8E72100280000F00CF8F8
S1132B200028CAD0012676423000F8BDF43C0000EB
S1132B30143D0000D43C0000364B70B51D680600FF
S1132B400C00002D05D0AB69002B02D1280000F049
S1132B5061F9314B9C420FD16C680C23E25E93B255
S1132B6019072DD4D90611D4092301203360373332
S1132B701343A381404270BD284B9C4201D1AC68F1
S1132B80EBE7274B9C42E8D1EC68E6E75B0713D5FB
S1132B90616B002908D023004433994202D03000ED
S1132BA000F03EFA002363632422A3899343A381A4
S1132BB000236360236923600823A2891343A3814C
S1132BC02369002B0BD1A0218022A38989009200C4
S1132BD00B40934203D02100300000F0D9F90123C7
S1132BE0A289134011D00023A36063695B42A361EF
S1132BF0002023698342BED10C23E25E1306BAD5BA
S1132C0040231343A3810138B5E7920700D46369D5
S1132C10A360EDE704000020F43C0000143D000034
S1132C20D43C0000F7B58A8905000C00130760D472
S1132C304B68002B04DC0B6C002B01DC0020FEBD78
S1132C40E76A002FFAD000232E682B6080235B01F3
S1132C501A4034D0606DA3895B0706D56368C01A37
S1132C60636B002B01D0236CC01A0200216A00237D
S1132C702800E76AB847A189431C06D12B681D2B9D
S1132C8031D82C4ADA40D3072DD500236360236959
S1132C902360CB0405D5431C02D12B68002B00D143
S1132CA06065616B2E600029C8D0230044339942CB
S1132CB002D0280000F0B4F900206063BFE70123CC
S1132CC0216A2800B847431CC5D12B68002BC2D009
S1132CD01D2B01D0162B01D12E60AFE74023A28912
S1132CE01343A381ABE740230B430120A38140425C
S1132CF0A5E70F69002FA1D00B680F60DB1B0193C0
S1132D000023920700D14B69A360019B002B00DCD8
S1132D1094E7019B3A00216A2800A66AB04700287C
S1132D2003DC4023A2891343DFE7019B3F181B1AEE
S1132D300193EAE7010040200B6970B505000C001F
S1132D40002B01D1002070BD002804D08369002B22
S1132D5001D100F05FF80B4B9C4209D16C680C2246
S1132D60A35E002BEED021002800FFF75BFFEAE70B
S1132D70054B9C4201D1AC68F1E7044B9C42EED177
S1132D80EC68ECE7F43C0000143D0000D43C000087
S1132D9010B5024900F0B2F810BDC046392D00004C
S1132DA0002310B50400036043608360818143669F
S1132DB0C281036143618361190008225C30FFF71B
S1132DC023FD054B24626362044BA362044BE3625C
S1132DD0044B236310BDC0462D3700005537000057
S1132DE08D370000B937000070B568254A1E554379
S1132DF00E002900743100F05DF9041E08D0002192
S1132E002A00016046600C30A0606832FFF7FCFCC9
S1132E10200070BD836913B50400002B28D183649E
S1132E20C3640365134B144A1B688262019398427E
S1132E3001D101238361200000F020F860602000AC
S1132E4000F01CF8A060200000F018F80022E060F8
S1132E5004216068FFF7A4FF01220921A068FFF79D
S1132E609FFF02221221E068FFF79AFF0123A3616A
S1132E7013BDC046D03C0000912D0000F8B51E4B98
S1132E8007001E68B369002B02D13000FFF7C2FFB0
S1132E904836B4687368013B04D53368002B07D007
S1132EA03668F6E70C22A55E002D0DD06834F2E7F3
S1132EB004213800FFF798FF30600028F0D10C237C
S1132EC004003B602000F8BD012320005B42E38145
S1132ED00233A38165662560A5606560256165612F
S1132EE0A561082229005C30FFF78EFC6563A563A9
S1132EF0A564E564E6E7C046D03C0000F7B50400ED
S1132F000700002601914834002C01D13000FEBD99
S1132F106368A5680093009B013B009301D5246876
S1132F20F2E7AB89012B08D90E22AB5E013304D042
S1132F3029003800019B984706436835EBE70000F9
S1132F4070B50E001D000E23C95E90B01400002958
S1132F5007DA00232B60B3891B0611D48023DB001E
S1132F600FE001AA00F054FC0028F2DBF022029BDF
S1132F7012021340054A9B185A4253412B60EDE755
S1132F8040230020236010B070BDC04600E0FFFF66
S1132F90F7B502268B8905000C00334206D02300C6
S1132FA047332360236101236361F7BD01AB6A46A4
S1132FB0FFF7C6FF00990700280000F07BF80028FF
S1132FC006D10C22A35E9A05EFD41E43A681E6E740
S1132FD00D4BAB628023A28920601343A381009B25
S1132FE020616361019B002B0AD00E23E15E28005F
S1132FF000F020FC002803D00123A2891343A381FD
S1133000A0893843A081D0E7912D000010B5034B6F
S11330100100186800F04EF810BDC04604000020FE
S113302070B50500002910D00C1F2368002B00DAAE
S1133030E418280000F02FFC1D4A1368002B05D16A
S113304063601460280000F027FC70BDA34209D916
S1133050216860188342F3D118685B6841182160C5
S1133060EEE713005A68002A01D0A242F9D9196880
S11330705818A0420BD120680918581819608242C8
S1133080E0D110685268411819605A60DAE7A0422A
S113309002D90C232B60D5E721686018824203D142
S11330A0106852684118216062605C60CAE7C046DB
S11330B000020020032370B5CD1C9D430835060093
S11330C00C2D1ED20C25A9421DD8300000F0E3FBC4
S11330D0254A14682100002919D1244C2368002BA7
S11330E003D1300000F010FB20602900300000F014
S11330F00BFB431C2CD10C233000336000F0CCFBC1
S113310003E0002DDFDA0C233360002070BD0B6870
S11331105B1B1AD40B2B03D90B60CC18256003E07E
S11331208C420ED163681360300000F0B5FB2000C0
S113313007220B30231D9043C31AE7D05A42E250B2
S1133140E4E74B6863600C00EEE70C004968C2E7F3
S11331500323C41C9C43A042E0D0211A300000F099
S1133160D3FA431CDAD1C6E700020020040200208F
S1133170936810B5013B9360002B05DA9469A34270
S113318008DBCBB20A2B05D01368581C10601970E9
S1133190C8B210BDFFF77AFCFBE7F8B506000F00D4
S11331A01400D518AC4201D1002007E021783A0080
S11331B03000FFF7DDFF0134431CF3D1F8BD0000FC
S11331C0F0B59FB006000F0014000593002804D04A
S11331D08369002B01D1FFF71DFE7F4B9F425CD119
S11331E07768BB891B0762D53B69002B5FD000233E
S11331F006AD6B6120336B761033AB760294029C80
S11332002378002B5DD1029BE31A04930DD0049B19
S1133210029A39003000FFF7C0FF431C00D1CCE014
S11332206A69049B944663446B612378002B00D144
S1133230C3E00122002352426A6002A954325218A8
S113324001342B60EB60AB601370AB652178052211
S1133250624800F015FB631C9C46002835D12968A0
S1133260CB0604D5532302AA20309B1818700B07F1
S113327004D553232B2002AA9B18187023782A2BD9
S11332802CD000200A21099B2278303A092A00D840
S11332906BE000282AD0099328E0514B9F4201D1CA
S11332A0B7689EE74F4B9F429BD1F76899E7390077
S11332B03000FFF741FC002899D0012040421FB0A4
S11332C0F0BD252B9FD001349AE7444B2968C01ADE
S11332D0012383400B432B606446B7E7059B181D0D
S11332E01B680590002B3ADB0993644623782E2B48
S11332F00BD16378621C2A2B3FD1059B02341A1D23
S11333001B680592002B35DB07932178032236488E
S113331000F0B6FA002807D0334B2A68C01A4023BD
S1133320834013432B6001342178631C06222F4809
S11333300293297600F0A4FA002844D02C4B002BE9
S11333402FD12968059B0722C90528D59B189343CB
S1133350083305936B69039A9B186B614FE75B42D3
S1133360EB6002230B432B60BFE74B4301349B18F4
S1133370012089E701235B42C6E7002314000A20E9
S11333801A006B6021783039092903D9002BBCD08D
S11333900792BAE74243013452180123F2E7073394
S11333A0D5E705AB00933A00124B2900300000E04A
S11333B000BF0390039B0133CCD1BB895B0600D5CE
S11333C07BE70B987BE705AB00933A00094B290098
S11333D0300000F07FF8ECE7F43C0000343D0000DE
S11333E0143D0000D43C00003A3D00003E3D000086
S11333F0000000009B310000F7B5150001938A68B6
S11334000B6900900C00934200DA130022002B6039
S113341043321278002A01D001332B6023689B06C3
S113342002D52B6802332B60062723681F4027D060
S1133430230043331B785A1E93412268920630D4EA
S11334402200019943320098089EB047431C25D0BE
S1133450062320682A68E16803400025042B03D171
S11334608D1AEB43DB171D40A3682269934201DDEB
S11334709B1AED180027BD4220D1002010E001372F
S1133480E3682A689B1A9F42D2DA22000123193288
S113349001990098089EB047431CF0D10120404296
S11334A0FEBD3020E1184331087021005A1C45311B
S11334B00978A218433202331170C1E722000123B4
S11334C01A3201990098089EB047431CE6D0013790
S11334D0D1E70000F0B58BB006920A00433207939F
S11334E0059004920A7E0C00109B6E2A00D18FE096
S11334F017D8632A2CD008D8002A00D199E0582A7A
S113350054D026004236327029E0642A01D0692A58
S1133510F7D121681A68080623D5111D19601568AA
S113352025E0732A00D188E008D86F2A29D0702AB0
S1133530E7D1202209680A43226003E0752A20D0DB
S1133540782ADED122007821453211706C4A30E0AD
S11335500E001A684236111D196013683370012376
S113356079E04906D9D5111D19600023D55E002DD7
S113357003DA2D23049A6D421370624B0A270393D6
S11335802FE020681968050603D5081D18600D682A
S113359005E04006F9D50D68081D1860ADB2594B19
S11335A0082703936F2A18D00A2716E045310A70BA
S11335B0544A03921A682168101D18601568080699
S11335C022D5CB0702D52023194321601027002DD3
S11335D003D1202322689A4322602300002243332C
S11335E01A706368A360002B5CDB0422216891439A
S11335F02160002D58D1049E002B64D02600039B2B
S113360042361B7833705EE04806DAD5ADB2D8E7AF
S113361009681A68080605D5111D196013686269DE
S11336201A6006E04906F7D5111D19601368A28ACD
S11336301A800023049E236154E01A68111D196046
S1133640166800216268300000F01AF9002801D0E1
S1133650801B6060636823610023049A137041E057
S11336602369320006990598079DA847431C43D057
S1133670236800259B070FD4099BE06898423DDA34
S113368018003BE022000123193206990598079E91
S1133690B047431C30D00135E368099A9B1A9D4218
S11336A0F0DBE9E7002DA9D0049E28003900FFF7DC
S11336B057F8039B013E5B5C280033703900FEF72A
S11336C0C9FF051EF1D1082F09D12368DB0706D5F0
S11336D063682269934202DC3023013E3370049B09
S11336E09B1B2361079B09AA00932100069B059855
S11336F0FFF782FE431CB3D1012040420BB0F0BD62
S1133700563D0000453D0000002370B5064C050001
S113371008002360FEF7FEFB431C03D12368002B43
S113372000D02B6070BDC0466C02002070B50C0048
S11337300E25495F00F0B2F8002803DB636D1B1807
S1133740636570BDA389024A1340A381F9E7C046AB
S1133750FFEFFFFFF8B51F008B8905000C00160072
S1133760DB0505D50E23C95E0022022300F074F8A0
S1133770A389054A28001340A38132000E23E15E89
S11337803B0000F01FF8F8BDFFEFFFFF70B50C0021
S11337900E25495F00F060F8A389421C03D1054A55
S11337A01340A38170BD802252011343A38160653D
S11337B0F8E7C046FFEFFFFF10B50E23C95E00F027
S11337C015F810BD70B50500080011000022064C64
S11337D022601A00FEF776FB431C03D12368002BFA
S11337E000D02B6070BDC0466C020020002370B571
S11337F0064C050008002360FEF79EFB431C03D122
S11338002368002B00D02B6070BDC0466C020020E2
S1133810002370B5064C0500080011002360FEF774
S11338208EFB431C03D12368002B00D02B6070BD9A
S11338306C020020002370B5064C050008002360CC
S1133840FEF782FB431C03D12368002B00D02B60BE
S113385070BDC0466C02002070B505000800110060
S11338600022064C22601A00FEF770FB431C03D1B1
S11338702368002B00D02B6070BDC0466C02002072
S1133880C9B28218904201D10020704703788B425C
S1133890FBD00130F6E770477047000070B50500B3
S11338A0080011000022064C22601A00FEF7E8FA14
S11338B0431C03D12368002B00D02B6070BDC0468D
S11338C06C020020E6010000BE010000C2010000FD
S11338D0C6010000CA010000CE010000D2010000B0
S11338E0D6010000DA010000DE01000080020000C1
S11338F0580200005E02000064020000640200003E
S11339006A0200006A0200006A02000070020000FD
S113391076020000780600007806000054060000D5
S113392078060000540600003A0600003A0600003B
S1133930780600007806000078060000780600008B
S1133940780600007806000078060000780600007B
S1133950780600007806000078060000780600006B
S1133960780600007806000078060000780600005B
S1133970780600007806000078060000780600004B
S1133980780600007806000078060000780600003B
S1133990780600007806000078060000780600002B
S11339A0780600007806000078060000780600001B
S11339B0780600007806000078060000780600000B
S11339C078060000780600007806000078060000FB
S11339D078060000780600007806000078060000EB
S11339E078060000780600007806000078060000DB
S11339F078060000780600007806000078060000CB
S1133A0078060000780600007806000078060000BA
S1133A107806000054060000540600005C0600000E
S1133A205C0600005C0600005C0600000008004222
S1133A30000C004200100042001400420018004232
S1133A40001C00420E1600000A1600000A160000B0
S1133A506C1600006C1600002216000014160000FC
S1133A60281600005A1600002C1800000C1800003C
S1133A700C180000981800001E1800003A180000E6
S1133A8010180000481800008818000076616C695E
S1133A9064000000696E76616C696400456E74654B
S1133AA072656420426F6F746C6F61646572206D1F
S1133AB06F64650A0D000000466C617368204368FA
S1133AC06970206E6F7420666F756E640A0D000055
S1133AD04154323544582072656164206661696CD2
S1133AE06564206174207061676520307825780DE5
S1133AF00A000000466C6173682073746174757306
S1133B003A20496D616765313A2025732C20496D4F
S1133B10616765323A2025730D0A0000496D6167BB
S1133B2065312056657273696F6E3A2025642C20C6
S1133B3053697A653A2025642C20436865636B7366
S1133B40756D3A20256C780D0A000000496D616797
S1133B5065322056657273696F6E3A2025642C2095
S1133B6053697A653A2025642C20436865636B7336
S1133B70756D3A20256C780D0A0000004D61726B5A
S1133B806564204E564D20696D61676520696E76C7
S1133B90616C69640D000000436865636B73756D47
S1133BA02076657269666965640D00004D61726B0B
S1133BB06564204E564D20696D6167652076616CA1
S1133BC069640D00436865636B73756D2076657277
S1133BD0696679206661696C65642E20547279691E
S1133BE06E6720496D616765320D00004368656347
S1133BF06B73756D20766572696679206661696C90
S1133C0065642E0D0000000045786974696E6720B4
S1133C10426F6F746C6F61646572206D6F64650AC6
S1133C200D00000041543235445820736C656570B2
S1133C30206661696C65640D000000004E657720A4
S1133C40696D61676520436865636B73756D3A20C0
S1133C50256C780D0A000000496D6167653100002C
S1133C60496D616765320000507265706172696EFA
S1133C706720257320466C61736820746F204E564C
S1133C804D2077726974650D0A000000446F6E65FB
S1133C90206E766D2065726173650D004154323576
S1133CA044582072656164206661696C65642061B2
S1133CB0742070616765203078256C780D0A0000E7
S1133CC0446F6E65206E766D2077726974650D00A1
S1133CD008000020000000000000000000000000B8
S1133CE000000000000000000000000000000000D0
S1133CF000000000000000000000000000000000C0
S1133D0000000000000000000000000000000000AF
S1133D10000000000000000000000000000000009F
S1133D20000000000000000000000000000000008F
S1133D3000000000232D302B2000686C4C006566C9
S1133D4067454647003031323334353637383941E8
S1133D5042434445460030313233343536373839FE
S1133D606162636465660000F8B5C046F8BC08BCCF
S1133D709E467047DD000000F8B5C046F8BC08BC9C
S10B3D809E467047B5000000E7
S1133D88010000000800002000000000F43C0000CE
S1133D98143D0000D43C00000000000000000000B6
S1133DA80000000000000000000000000000000007
S1133DB800000000000000000000000000000000F7
S1133DC800000000000000000000000000000000E7
S1133DD800000000000000000000000000000000D7
S10B3DE80000000000000000CF
S9031D9D42
